{
  "contractName": "Token",
  "abi": [
    {
      "inputs": [
        {
          "internalType": "string",
          "name": "name",
          "type": "string"
        },
        {
          "internalType": "string",
          "name": "symbol",
          "type": "string"
        }
      ],
      "stateMutability": "nonpayable",
      "type": "constructor"
    },
    {
      "anonymous": false,
      "inputs": [
        {
          "indexed": true,
          "internalType": "address",
          "name": "owner",
          "type": "address"
        },
        {
          "indexed": true,
          "internalType": "address",
          "name": "approved",
          "type": "address"
        },
        {
          "indexed": true,
          "internalType": "uint256",
          "name": "tokenId",
          "type": "uint256"
        }
      ],
      "name": "Approval",
      "type": "event"
    },
    {
      "anonymous": false,
      "inputs": [
        {
          "indexed": true,
          "internalType": "address",
          "name": "owner",
          "type": "address"
        },
        {
          "indexed": true,
          "internalType": "address",
          "name": "operator",
          "type": "address"
        },
        {
          "indexed": false,
          "internalType": "bool",
          "name": "approved",
          "type": "bool"
        }
      ],
      "name": "ApprovalForAll",
      "type": "event"
    },
    {
      "anonymous": false,
      "inputs": [
        {
          "indexed": true,
          "internalType": "address",
          "name": "previousOwner",
          "type": "address"
        },
        {
          "indexed": true,
          "internalType": "address",
          "name": "newOwner",
          "type": "address"
        }
      ],
      "name": "OwnershipTransferred",
      "type": "event"
    },
    {
      "anonymous": false,
      "inputs": [
        {
          "indexed": true,
          "internalType": "address",
          "name": "from",
          "type": "address"
        },
        {
          "indexed": true,
          "internalType": "address",
          "name": "to",
          "type": "address"
        },
        {
          "indexed": true,
          "internalType": "uint256",
          "name": "tokenId",
          "type": "uint256"
        }
      ],
      "name": "Transfer",
      "type": "event"
    },
    {
      "inputs": [
        {
          "internalType": "address",
          "name": "to",
          "type": "address"
        },
        {
          "internalType": "uint256",
          "name": "tokenId",
          "type": "uint256"
        }
      ],
      "name": "approve",
      "outputs": [],
      "stateMutability": "nonpayable",
      "type": "function"
    },
    {
      "inputs": [
        {
          "internalType": "address",
          "name": "owner",
          "type": "address"
        }
      ],
      "name": "balanceOf",
      "outputs": [
        {
          "internalType": "uint256",
          "name": "",
          "type": "uint256"
        }
      ],
      "stateMutability": "view",
      "type": "function",
      "constant": true
    },
    {
      "inputs": [
        {
          "internalType": "uint256",
          "name": "tokenId",
          "type": "uint256"
        }
      ],
      "name": "getApproved",
      "outputs": [
        {
          "internalType": "address",
          "name": "",
          "type": "address"
        }
      ],
      "stateMutability": "view",
      "type": "function",
      "constant": true
    },
    {
      "inputs": [
        {
          "internalType": "address",
          "name": "owner",
          "type": "address"
        },
        {
          "internalType": "address",
          "name": "operator",
          "type": "address"
        }
      ],
      "name": "isApprovedForAll",
      "outputs": [
        {
          "internalType": "bool",
          "name": "",
          "type": "bool"
        }
      ],
      "stateMutability": "view",
      "type": "function",
      "constant": true
    },
    {
      "inputs": [],
      "name": "name",
      "outputs": [
        {
          "internalType": "string",
          "name": "",
          "type": "string"
        }
      ],
      "stateMutability": "view",
      "type": "function",
      "constant": true
    },
    {
      "inputs": [],
      "name": "owner",
      "outputs": [
        {
          "internalType": "address",
          "name": "",
          "type": "address"
        }
      ],
      "stateMutability": "view",
      "type": "function",
      "constant": true
    },
    {
      "inputs": [
        {
          "internalType": "uint256",
          "name": "tokenId",
          "type": "uint256"
        }
      ],
      "name": "ownerOf",
      "outputs": [
        {
          "internalType": "address",
          "name": "",
          "type": "address"
        }
      ],
      "stateMutability": "view",
      "type": "function",
      "constant": true
    },
    {
      "inputs": [],
      "name": "renounceOwnership",
      "outputs": [],
      "stateMutability": "nonpayable",
      "type": "function"
    },
    {
      "inputs": [
        {
          "internalType": "address",
          "name": "from",
          "type": "address"
        },
        {
          "internalType": "address",
          "name": "to",
          "type": "address"
        },
        {
          "internalType": "uint256",
          "name": "tokenId",
          "type": "uint256"
        }
      ],
      "name": "safeTransferFrom",
      "outputs": [],
      "stateMutability": "nonpayable",
      "type": "function"
    },
    {
      "inputs": [
        {
          "internalType": "address",
          "name": "from",
          "type": "address"
        },
        {
          "internalType": "address",
          "name": "to",
          "type": "address"
        },
        {
          "internalType": "uint256",
          "name": "tokenId",
          "type": "uint256"
        },
        {
          "internalType": "bytes",
          "name": "_data",
          "type": "bytes"
        }
      ],
      "name": "safeTransferFrom",
      "outputs": [],
      "stateMutability": "nonpayable",
      "type": "function"
    },
    {
      "inputs": [
        {
          "internalType": "address",
          "name": "operator",
          "type": "address"
        },
        {
          "internalType": "bool",
          "name": "approved",
          "type": "bool"
        }
      ],
      "name": "setApprovalForAll",
      "outputs": [],
      "stateMutability": "nonpayable",
      "type": "function"
    },
    {
      "inputs": [
        {
          "internalType": "bytes4",
          "name": "interfaceId",
          "type": "bytes4"
        }
      ],
      "name": "supportsInterface",
      "outputs": [
        {
          "internalType": "bool",
          "name": "",
          "type": "bool"
        }
      ],
      "stateMutability": "view",
      "type": "function",
      "constant": true
    },
    {
      "inputs": [],
      "name": "symbol",
      "outputs": [
        {
          "internalType": "string",
          "name": "",
          "type": "string"
        }
      ],
      "stateMutability": "view",
      "type": "function",
      "constant": true
    },
    {
      "inputs": [
        {
          "internalType": "uint256",
          "name": "tokenId",
          "type": "uint256"
        }
      ],
      "name": "tokenURI",
      "outputs": [
        {
          "internalType": "string",
          "name": "",
          "type": "string"
        }
      ],
      "stateMutability": "view",
      "type": "function",
      "constant": true
    },
    {
      "inputs": [
        {
          "internalType": "address",
          "name": "from",
          "type": "address"
        },
        {
          "internalType": "address",
          "name": "to",
          "type": "address"
        },
        {
          "internalType": "uint256",
          "name": "tokenId",
          "type": "uint256"
        }
      ],
      "name": "transferFrom",
      "outputs": [],
      "stateMutability": "nonpayable",
      "type": "function"
    },
    {
      "inputs": [
        {
          "internalType": "address",
          "name": "newOwner",
          "type": "address"
        }
      ],
      "name": "transferOwnership",
      "outputs": [],
      "stateMutability": "nonpayable",
      "type": "function"
    },
    {
      "inputs": [
        {
          "internalType": "string",
          "name": "enjimonName",
          "type": "string"
        },
        {
          "internalType": "uint8",
          "name": "damage",
          "type": "uint8"
        },
        {
          "internalType": "uint8",
          "name": "magic",
          "type": "uint8"
        },
        {
          "internalType": "uint256",
          "name": "endurance",
          "type": "uint256"
        },
        {
          "internalType": "uint8",
          "name": "level",
          "type": "uint8"
        }
      ],
      "name": "mint",
      "outputs": [],
      "stateMutability": "nonpayable",
      "type": "function"
    },
    {
      "inputs": [
        {
          "internalType": "uint256",
          "name": "tokenId",
          "type": "uint256"
        }
      ],
      "name": "feed",
      "outputs": [],
      "stateMutability": "nonpayable",
      "type": "function"
    },
    {
      "inputs": [
        {
          "internalType": "uint256",
          "name": "tokenId",
          "type": "uint256"
        }
      ],
      "name": "train",
      "outputs": [],
      "stateMutability": "nonpayable",
      "type": "function"
    },
    {
      "inputs": [
        {
          "internalType": "uint256",
          "name": "tokenId",
          "type": "uint256"
        }
      ],
      "name": "getTokenDetails",
      "outputs": [
        {
          "components": [
            {
              "internalType": "string",
              "name": "enjimonName",
              "type": "string"
            },
            {
              "internalType": "uint8",
              "name": "damage",
              "type": "uint8"
            },
            {
              "internalType": "uint8",
              "name": "magic",
              "type": "uint8"
            },
            {
              "internalType": "uint256",
              "name": "endurance",
              "type": "uint256"
            },
            {
              "internalType": "uint8",
              "name": "level",
              "type": "uint8"
            },
            {
              "internalType": "uint256",
              "name": "lastMeal",
              "type": "uint256"
            },
            {
              "internalType": "uint256",
              "name": "lastTrained",
              "type": "uint256"
            }
          ],
          "internalType": "struct Token.Enjimon",
          "name": "",
          "type": "tuple"
        }
      ],
      "stateMutability": "view",
      "type": "function",
      "constant": true
    },
    {
      "inputs": [
        {
          "internalType": "address",
          "name": "user",
          "type": "address"
        }
      ],
      "name": "getAllTokensForUser",
      "outputs": [
        {
          "internalType": "uint256[]",
          "name": "",
          "type": "uint256[]"
        }
      ],
      "stateMutability": "view",
      "type": "function",
      "constant": true
    }
  ],
  "bytecode": "0x608060405260006007556103846008553480156200001c57600080fd5b5060405162003a1e38038062003a1e833981810160405281019062000042919062000290565b818181600090805190602001906200005c9291906200016e565b508060019080519060200190620000759291906200016e565b505050620000986200008c620000a060201b60201c565b620000a860201b60201c565b505062000473565b600033905090565b6000600660009054906101000a900473ffffffffffffffffffffffffffffffffffffffff16905081600660006101000a81548173ffffffffffffffffffffffffffffffffffffffff021916908373ffffffffffffffffffffffffffffffffffffffff1602179055508173ffffffffffffffffffffffffffffffffffffffff168173ffffffffffffffffffffffffffffffffffffffff167f8be0079c531659141344cd1fd0a4f28419497f9722a3daafe3b4186f6b6457e060405160405180910390a35050565b8280546200017c9062000398565b90600052602060002090601f016020900481019282620001a05760008555620001ec565b82601f10620001bb57805160ff1916838001178555620001ec565b82800160010185558215620001ec579182015b82811115620001eb578251825591602001919060010190620001ce565b5b509050620001fb9190620001ff565b5090565b5b808211156200021a57600081600090555060010162000200565b5090565b6000620002356200022f846200032c565b62000303565b9050828152602081018484840111156200024e57600080fd5b6200025b84828562000362565b509392505050565b600082601f8301126200027557600080fd5b8151620002878482602086016200021e565b91505092915050565b60008060408385031215620002a457600080fd5b600083015167ffffffffffffffff811115620002bf57600080fd5b620002cd8582860162000263565b925050602083015167ffffffffffffffff811115620002eb57600080fd5b620002f98582860162000263565b9150509250929050565b60006200030f62000322565b90506200031d8282620003ce565b919050565b6000604051905090565b600067ffffffffffffffff8211156200034a576200034962000433565b5b620003558262000462565b9050602081019050919050565b60005b838110156200038257808201518184015260208101905062000365565b8381111562000392576000848401525b50505050565b60006002820490506001821680620003b157607f821691505b60208210811415620003c857620003c762000404565b5b50919050565b620003d98262000462565b810181811067ffffffffffffffff82111715620003fb57620003fa62000433565b5b80604052505050565b7f4e487b7100000000000000000000000000000000000000000000000000000000600052602260045260246000fd5b7f4e487b7100000000000000000000000000000000000000000000000000000000600052604160045260246000fd5b6000601f19601f8301169050919050565b61359b80620004836000396000f3fe608060405234801561001057600080fd5b50600436106101375760003560e01c806382de8fe9116100b8578063b88d4fde1161007c578063b88d4fde14610338578063c1e0372814610354578063c87b56dd14610384578063e985e9c5146103b4578063f2fde38b146103e4578063f59dfdfb1461040057610137565b806382de8fe9146102945780638da5cb5b146102c457806395d89b41146102e25780639be1539f14610300578063a22cb4651461031c57610137565b8063368004ed116100ff578063368004ed146101f257806342842e0e1461020e5780636352211e1461022a57806370a082311461025a578063715018a61461028a57610137565b806301ffc9a71461013c57806306fdde031461016c578063081812fc1461018a578063095ea7b3146101ba57806323b872dd146101d6575b600080fd5b6101566004803603810190610151919061238d565b61041c565b60405161016391906129ad565b60405180910390f35b6101746104fe565b60405161018191906129c8565b60405180910390f35b6101a4600480360381019061019f919061246e565b610590565b6040516101b19190612924565b60405180910390f35b6101d460048036038101906101cf9190612351565b610615565b005b6101f060048036038101906101eb919061224b565b61072d565b005b61020c6004803603810190610207919061246e565b61078d565b005b6102286004803603810190610223919061224b565b610807565b005b610244600480360381019061023f919061246e565b610827565b6040516102519190612924565b60405180910390f35b610274600480360381019061026f91906121e6565b6108d9565b6040516102819190612c0c565b60405180910390f35b610292610991565b005b6102ae60048036038101906102a991906121e6565b610a19565b6040516102bb919061298b565b60405180910390f35b6102cc610be9565b6040516102d99190612924565b60405180910390f35b6102ea610c13565b6040516102f791906129c8565b60405180910390f35b61031a600480360381019061031591906123df565b610ca5565b005b61033660048036038101906103319190612315565b610e3e565b005b610352600480360381019061034d919061229a565b610fbf565b005b61036e6004803603810190610369919061246e565b611021565b60405161037b9190612bea565b60405180910390f35b61039e6004803603810190610399919061246e565b611155565b6040516103ab91906129c8565b60405180910390f35b6103ce60048036038101906103c9919061220f565b6111fc565b6040516103db91906129ad565b60405180910390f35b6103fe60048036038101906103f991906121e6565b611290565b005b61041a6004803603810190610415919061246e565b611388565b005b60007f80ac58cd000000000000000000000000000000000000000000000000000000007bffffffffffffffffffffffffffffffffffffffffffffffffffffffff1916827bffffffffffffffffffffffffffffffffffffffffffffffffffffffff191614806104e757507f5b5e139f000000000000000000000000000000000000000000000000000000007bffffffffffffffffffffffffffffffffffffffffffffffffffffffff1916827bffffffffffffffffffffffffffffffffffffffffffffffffffffffff1916145b806104f757506104f6826113cb565b5b9050919050565b60606000805461050d90612ef0565b80601f016020809104026020016040519081016040528092919081815260200182805461053990612ef0565b80156105865780601f1061055b57610100808354040283529160200191610586565b820191906000526020600020905b81548152906001019060200180831161056957829003601f168201915b5050505050905090565b600061059b82611435565b6105da576040517f08c379a00000000000000000000000000000000000000000000000000000000081526004016105d190612b2a565b60405180910390fd5b6004600083815260200190815260200160002060009054906101000a900473ffffffffffffffffffffffffffffffffffffffff169050919050565b600061062082610827565b90508073ffffffffffffffffffffffffffffffffffffffff168373ffffffffffffffffffffffffffffffffffffffff161415610691576040517f08c379a000000000000000000000000000000000000000000000000000000000815260040161068890612baa565b60405180910390fd5b8073ffffffffffffffffffffffffffffffffffffffff166106b06114a1565b73ffffffffffffffffffffffffffffffffffffffff1614806106df57506106de816106d96114a1565b6111fc565b5b61071e576040517f08c379a000000000000000000000000000000000000000000000000000000000815260040161071590612aaa565b60405180910390fd5b61072883836114a9565b505050565b61073e6107386114a1565b82611562565b61077d576040517f08c379a000000000000000000000000000000000000000000000000000000000815260040161077490612bca565b60405180910390fd5b610788838383611640565b505050565b600060096000838152602001908152602001600020905060085481600501546107b69190612d3b565b42116107c157600080fd5b42816005018190555060018160030160008282829054906101000a900460ff166107eb9190612d91565b92506101000a81548160ff021916908360ff1602179055505050565b61082283838360405180602001604052806000815250610fbf565b505050565b6000806002600084815260200190815260200160002060009054906101000a900473ffffffffffffffffffffffffffffffffffffffff169050600073ffffffffffffffffffffffffffffffffffffffff168173ffffffffffffffffffffffffffffffffffffffff1614156108d0576040517f08c379a00000000000000000000000000000000000000000000000000000000081526004016108c790612aea565b60405180910390fd5b80915050919050565b60008073ffffffffffffffffffffffffffffffffffffffff168273ffffffffffffffffffffffffffffffffffffffff16141561094a576040517f08c379a000000000000000000000000000000000000000000000000000000000815260040161094190612aca565b60405180910390fd5b600360008373ffffffffffffffffffffffffffffffffffffffff1673ffffffffffffffffffffffffffffffffffffffff168152602001908152602001600020549050919050565b6109996114a1565b73ffffffffffffffffffffffffffffffffffffffff166109b7610be9565b73ffffffffffffffffffffffffffffffffffffffff1614610a0d576040517f08c379a0000000000000000000000000000000000000000000000000000000008152600401610a0490612b4a565b60405180910390fd5b610a17600061189c565b565b60606000610a26836108d9565b90506000811415610aa957600067ffffffffffffffff811115610a72577f4e487b7100000000000000000000000000000000000000000000000000000000600052604160045260246000fd5b604051908082528060200260200182016040528015610aa05781602001602082028036833780820191505090505b50915050610be4565b60008167ffffffffffffffff811115610aeb577f4e487b7100000000000000000000000000000000000000000000000000000000600052604160045260246000fd5b604051908082528060200260200182016040528015610b195781602001602082028036833780820191505090505b5090506000600754905060008060009050600091505b82821015610bdb578673ffffffffffffffffffffffffffffffffffffffff16610b5783610827565b73ffffffffffffffffffffffffffffffffffffffff161415610bc85781848281518110610bad577f4e487b7100000000000000000000000000000000000000000000000000000000600052603260045260246000fd5b6020026020010181815250508080610bc490612f53565b9150505b8180610bd390612f53565b925050610b2f565b83955050505050505b919050565b6000600660009054906101000a900473ffffffffffffffffffffffffffffffffffffffff16905090565b606060018054610c2290612ef0565b80601f0160208091040260200160405190810160405280929190818152602001828054610c4e90612ef0565b8015610c9b5780601f10610c7057610100808354040283529160200191610c9b565b820191906000526020600020905b815481529060010190602001808311610c7e57829003601f168201915b5050505050905090565b610cad6114a1565b73ffffffffffffffffffffffffffffffffffffffff16610ccb610be9565b73ffffffffffffffffffffffffffffffffffffffff1614610d21576040517f08c379a0000000000000000000000000000000000000000000000000000000008152600401610d1890612b4a565b60405180910390fd5b6040518060e001604052808681526020018560ff1681526020018460ff1681526020018381526020018260ff168152602001428152602001428152506009600060075481526020019081526020016000206000820151816000019080519060200190610d8e929190611faf565b5060208201518160010160006101000a81548160ff021916908360ff16021790555060408201518160010160016101000a81548160ff021916908360ff1602179055506060820151816002015560808201518160030160006101000a81548160ff021916908360ff16021790555060a0820151816004015560c08201518160050155905050610e1f33600754611962565b60076000815480929190610e3290612f53565b91905055505050505050565b610e466114a1565b73ffffffffffffffffffffffffffffffffffffffff168273ffffffffffffffffffffffffffffffffffffffff161415610eb4576040517f08c379a0000000000000000000000000000000000000000000000000000000008152600401610eab90612a6a565b60405180910390fd5b8060056000610ec16114a1565b73ffffffffffffffffffffffffffffffffffffffff1673ffffffffffffffffffffffffffffffffffffffff16815260200190815260200160002060008473ffffffffffffffffffffffffffffffffffffffff1673ffffffffffffffffffffffffffffffffffffffff16815260200190815260200160002060006101000a81548160ff0219169083151502179055508173ffffffffffffffffffffffffffffffffffffffff16610f6e6114a1565b73ffffffffffffffffffffffffffffffffffffffff167f17307eab39ab6107e8899845ad3d59bd9653f200f220920489ca2b5937696c3183604051610fb391906129ad565b60405180910390a35050565b610fd0610fca6114a1565b83611562565b61100f576040517f08c379a000000000000000000000000000000000000000000000000000000000815260040161100690612bca565b60405180910390fd5b61101b84848484611980565b50505050565b611029612035565b600960008381526020019081526020016000206040518060e001604052908160008201805461105790612ef0565b80601f016020809104026020016040519081016040528092919081815260200182805461108390612ef0565b80156110d05780601f106110a5576101008083540402835291602001916110d0565b820191906000526020600020905b8154815290600101906020018083116110b357829003601f168201915b505050505081526020016001820160009054906101000a900460ff1660ff1660ff1681526020016001820160019054906101000a900460ff1660ff1660ff168152602001600282015481526020016003820160009054906101000a900460ff1660ff1660ff168152602001600482015481526020016005820154815250509050919050565b606061116082611435565b61119f576040517f08c379a000000000000000000000000000000000000000000000000000000000815260040161119690612b8a565b60405180910390fd5b60006111a96119dc565b905060008151116111c957604051806020016040528060008152506111f4565b806111d3846119f3565b6040516020016111e4929190612900565b6040516020818303038152906040525b915050919050565b6000600560008473ffffffffffffffffffffffffffffffffffffffff1673ffffffffffffffffffffffffffffffffffffffff16815260200190815260200160002060008373ffffffffffffffffffffffffffffffffffffffff1673ffffffffffffffffffffffffffffffffffffffff16815260200190815260200160002060009054906101000a900460ff16905092915050565b6112986114a1565b73ffffffffffffffffffffffffffffffffffffffff166112b6610be9565b73ffffffffffffffffffffffffffffffffffffffff161461130c576040517f08c379a000000000000000000000000000000000000000000000000000000000815260040161130390612b4a565b60405180910390fd5b600073ffffffffffffffffffffffffffffffffffffffff168173ffffffffffffffffffffffffffffffffffffffff16141561137c576040517f08c379a000000000000000000000000000000000000000000000000000000000815260040161137390612a0a565b60405180910390fd5b6113858161189c565b50565b600060096000838152602001908152602001600020905042816002015482600401546113b49190612d3b565b116113be57600080fd5b4281600401819055505050565b60007f01ffc9a7000000000000000000000000000000000000000000000000000000007bffffffffffffffffffffffffffffffffffffffffffffffffffffffff1916827bffffffffffffffffffffffffffffffffffffffffffffffffffffffff1916149050919050565b60008073ffffffffffffffffffffffffffffffffffffffff166002600084815260200190815260200160002060009054906101000a900473ffffffffffffffffffffffffffffffffffffffff1673ffffffffffffffffffffffffffffffffffffffff1614159050919050565b600033905090565b816004600083815260200190815260200160002060006101000a81548173ffffffffffffffffffffffffffffffffffffffff021916908373ffffffffffffffffffffffffffffffffffffffff160217905550808273ffffffffffffffffffffffffffffffffffffffff1661151c83610827565b73ffffffffffffffffffffffffffffffffffffffff167f8c5be1e5ebec7d5bd14f71427d1e84f3dd0314c0f7b2291e5b200ac8c7c3b92560405160405180910390a45050565b600061156d82611435565b6115ac576040517f08c379a00000000000000000000000000000000000000000000000000000000081526004016115a390612a8a565b60405180910390fd5b60006115b783610827565b90508073ffffffffffffffffffffffffffffffffffffffff168473ffffffffffffffffffffffffffffffffffffffff16148061162657508373ffffffffffffffffffffffffffffffffffffffff1661160e84610590565b73ffffffffffffffffffffffffffffffffffffffff16145b80611637575061163681856111fc565b5b91505092915050565b8273ffffffffffffffffffffffffffffffffffffffff1661166082610827565b73ffffffffffffffffffffffffffffffffffffffff16146116b6576040517f08c379a00000000000000000000000000000000000000000000000000000000081526004016116ad90612b6a565b60405180910390fd5b600073ffffffffffffffffffffffffffffffffffffffff168273ffffffffffffffffffffffffffffffffffffffff161415611726576040517f08c379a000000000000000000000000000000000000000000000000000000000815260040161171d90612a4a565b60405180910390fd5b611731838383611ba0565b61173c6000826114a9565b6001600360008573ffffffffffffffffffffffffffffffffffffffff1673ffffffffffffffffffffffffffffffffffffffff168152602001908152602001600020600082825461178c9190612df9565b925050819055506001600360008473ffffffffffffffffffffffffffffffffffffffff1673ffffffffffffffffffffffffffffffffffffffff16815260200190815260200160002060008282546117e39190612d3b565b92505081905550816002600083815260200190815260200160002060006101000a81548173ffffffffffffffffffffffffffffffffffffffff021916908373ffffffffffffffffffffffffffffffffffffffff160217905550808273ffffffffffffffffffffffffffffffffffffffff168473ffffffffffffffffffffffffffffffffffffffff167fddf252ad1be2c89b69c2b068fc378daa952ba7f163c4a11628f55a4df523b3ef60405160405180910390a4505050565b6000600660009054906101000a900473ffffffffffffffffffffffffffffffffffffffff16905081600660006101000a81548173ffffffffffffffffffffffffffffffffffffffff021916908373ffffffffffffffffffffffffffffffffffffffff1602179055508173ffffffffffffffffffffffffffffffffffffffff168173ffffffffffffffffffffffffffffffffffffffff167f8be0079c531659141344cd1fd0a4f28419497f9722a3daafe3b4186f6b6457e060405160405180910390a35050565b61197c828260405180602001604052806000815250611bdc565b5050565b61198b848484611640565b61199784848484611c37565b6119d6576040517f08c379a00000000000000000000000000000000000000000000000000000000081526004016119cd906129ea565b60405180910390fd5b50505050565b606060405180602001604052806000815250905090565b60606000821415611a3b576040518060400160405280600181526020017f30000000000000000000000000000000000000000000000000000000000000008152509050611b9b565b600082905060005b60008214611a6d578080611a5690612f53565b915050600a82611a669190612dc8565b9150611a43565b60008167ffffffffffffffff811115611aaf577f4e487b7100000000000000000000000000000000000000000000000000000000600052604160045260246000fd5b6040519080825280601f01601f191660200182016040528015611ae15781602001600182028036833780820191505090505b5090505b60008514611b9457600182611afa9190612df9565b9150600a85611b099190612f9c565b6030611b159190612d3b565b60f81b818381518110611b51577f4e487b7100000000000000000000000000000000000000000000000000000000600052603260045260246000fd5b60200101907effffffffffffffffffffffffffffffffffffffffffffffffffffffffffffff1916908160001a905350600a85611b8d9190612dc8565b9450611ae5565b8093505050505b919050565b60006009600083815260200190815260200160002090504281600201548260040154611bcc9190612d3b565b11611bd657600080fd5b50505050565b611be68383611dce565b611bf36000848484611c37565b611c32576040517f08c379a0000000000000000000000000000000000000000000000000000000008152600401611c29906129ea565b60405180910390fd5b505050565b6000611c588473ffffffffffffffffffffffffffffffffffffffff16611f9c565b15611dc1578373ffffffffffffffffffffffffffffffffffffffff1663150b7a02611c816114a1565b8786866040518563ffffffff1660e01b8152600401611ca3949392919061293f565b602060405180830381600087803b158015611cbd57600080fd5b505af1925050508015611cee57506040513d601f19601f82011682018060405250810190611ceb91906123b6565b60015b611d71573d8060008114611d1e576040519150601f19603f3d011682016040523d82523d6000602084013e611d23565b606091505b50600081511415611d69576040517f08c379a0000000000000000000000000000000000000000000000000000000008152600401611d60906129ea565b60405180910390fd5b805181602001fd5b63150b7a0260e01b7bffffffffffffffffffffffffffffffffffffffffffffffffffffffff1916817bffffffffffffffffffffffffffffffffffffffffffffffffffffffff191614915050611dc6565b600190505b949350505050565b600073ffffffffffffffffffffffffffffffffffffffff168273ffffffffffffffffffffffffffffffffffffffff161415611e3e576040517f08c379a0000000000000000000000000000000000000000000000000000000008152600401611e3590612b0a565b60405180910390fd5b611e4781611435565b15611e87576040517f08c379a0000000000000000000000000000000000000000000000000000000008152600401611e7e90612a2a565b60405180910390fd5b611e9360008383611ba0565b6001600360008473ffffffffffffffffffffffffffffffffffffffff1673ffffffffffffffffffffffffffffffffffffffff1681526020019081526020016000206000828254611ee39190612d3b565b92505081905550816002600083815260200190815260200160002060006101000a81548173ffffffffffffffffffffffffffffffffffffffff021916908373ffffffffffffffffffffffffffffffffffffffff160217905550808273ffffffffffffffffffffffffffffffffffffffff16600073ffffffffffffffffffffffffffffffffffffffff167fddf252ad1be2c89b69c2b068fc378daa952ba7f163c4a11628f55a4df523b3ef60405160405180910390a45050565b600080823b905060008111915050919050565b828054611fbb90612ef0565b90600052602060002090601f016020900481019282611fdd5760008555612024565b82601f10611ff657805160ff1916838001178555612024565b82800160010185558215612024579182015b82811115612023578251825591602001919060010190612008565b5b509050612031919061207b565b5090565b6040518060e0016040528060608152602001600060ff168152602001600060ff16815260200160008152602001600060ff16815260200160008152602001600081525090565b5b8082111561209457600081600090555060010161207c565b5090565b60006120ab6120a684612c4c565b612c27565b9050828152602081018484840111156120c357600080fd5b6120ce848285612eae565b509392505050565b60006120e96120e484612c7d565b612c27565b90508281526020810184848401111561210157600080fd5b61210c848285612eae565b509392505050565b600081359050612123816134f2565b92915050565b60008135905061213881613509565b92915050565b60008135905061214d81613520565b92915050565b60008151905061216281613520565b92915050565b600082601f83011261217957600080fd5b8135612189848260208601612098565b91505092915050565b600082601f8301126121a357600080fd5b81356121b38482602086016120d6565b91505092915050565b6000813590506121cb81613537565b92915050565b6000813590506121e08161354e565b92915050565b6000602082840312156121f857600080fd5b600061220684828501612114565b91505092915050565b6000806040838503121561222257600080fd5b600061223085828601612114565b925050602061224185828601612114565b9150509250929050565b60008060006060848603121561226057600080fd5b600061226e86828701612114565b935050602061227f86828701612114565b9250506040612290868287016121bc565b9150509250925092565b600080600080608085870312156122b057600080fd5b60006122be87828801612114565b94505060206122cf87828801612114565b93505060406122e0878288016121bc565b925050606085013567ffffffffffffffff8111156122fd57600080fd5b61230987828801612168565b91505092959194509250565b6000806040838503121561232857600080fd5b600061233685828601612114565b925050602061234785828601612129565b9150509250929050565b6000806040838503121561236457600080fd5b600061237285828601612114565b9250506020612383858286016121bc565b9150509250929050565b60006020828403121561239f57600080fd5b60006123ad8482850161213e565b91505092915050565b6000602082840312156123c857600080fd5b60006123d684828501612153565b91505092915050565b600080600080600060a086880312156123f757600080fd5b600086013567ffffffffffffffff81111561241157600080fd5b61241d88828901612192565b955050602061242e888289016121d1565b945050604061243f888289016121d1565b9350506060612450888289016121bc565b9250506080612461888289016121d1565b9150509295509295909350565b60006020828403121561248057600080fd5b600061248e848285016121bc565b91505092915050565b60006124a383836128d3565b60208301905092915050565b6124b881612e2d565b82525050565b60006124c982612cbe565b6124d38185612cec565b93506124de83612cae565b8060005b8381101561250f5781516124f68882612497565b975061250183612cdf565b9250506001810190506124e2565b5085935050505092915050565b61252581612e3f565b82525050565b600061253682612cc9565b6125408185612cfd565b9350612550818560208601612ebd565b61255981613089565b840191505092915050565b600061256f82612cd4565b6125798185612d0e565b9350612589818560208601612ebd565b61259281613089565b840191505092915050565b60006125a882612cd4565b6125b28185612d1f565b93506125c2818560208601612ebd565b6125cb81613089565b840191505092915050565b60006125e182612cd4565b6125eb8185612d30565b93506125fb818560208601612ebd565b80840191505092915050565b6000612614603283612d1f565b915061261f8261309a565b604082019050919050565b6000612637602683612d1f565b9150612642826130e9565b604082019050919050565b600061265a601c83612d1f565b915061266582613138565b602082019050919050565b600061267d602483612d1f565b915061268882613161565b604082019050919050565b60006126a0601983612d1f565b91506126ab826131b0565b602082019050919050565b60006126c3602c83612d1f565b91506126ce826131d9565b604082019050919050565b60006126e6603883612d1f565b91506126f182613228565b604082019050919050565b6000612709602a83612d1f565b915061271482613277565b604082019050919050565b600061272c602983612d1f565b9150612737826132c6565b604082019050919050565b600061274f602083612d1f565b915061275a82613315565b602082019050919050565b6000612772602c83612d1f565b915061277d8261333e565b604082019050919050565b6000612795602083612d1f565b91506127a08261338d565b602082019050919050565b60006127b8602983612d1f565b91506127c3826133b6565b604082019050919050565b60006127db602f83612d1f565b91506127e682613405565b604082019050919050565b60006127fe602183612d1f565b915061280982613454565b604082019050919050565b6000612821603183612d1f565b915061282c826134a3565b604082019050919050565b600060e08301600083015184820360008601526128548282612564565b915050602083015161286960208601826128f1565b50604083015161287c60408601826128f1565b50606083015161288f60608601826128d3565b5060808301516128a260808601826128f1565b5060a08301516128b560a08601826128d3565b5060c08301516128c860c08601826128d3565b508091505092915050565b6128dc81612e97565b82525050565b6128eb81612e97565b82525050565b6128fa81612ea1565b82525050565b600061290c82856125d6565b915061291882846125d6565b91508190509392505050565b600060208201905061293960008301846124af565b92915050565b600060808201905061295460008301876124af565b61296160208301866124af565b61296e60408301856128e2565b8181036060830152612980818461252b565b905095945050505050565b600060208201905081810360008301526129a581846124be565b905092915050565b60006020820190506129c2600083018461251c565b92915050565b600060208201905081810360008301526129e2818461259d565b905092915050565b60006020820190508181036000830152612a0381612607565b9050919050565b60006020820190508181036000830152612a238161262a565b9050919050565b60006020820190508181036000830152612a438161264d565b9050919050565b60006020820190508181036000830152612a6381612670565b9050919050565b60006020820190508181036000830152612a8381612693565b9050919050565b60006020820190508181036000830152612aa3816126b6565b9050919050565b60006020820190508181036000830152612ac3816126d9565b9050919050565b60006020820190508181036000830152612ae3816126fc565b9050919050565b60006020820190508181036000830152612b038161271f565b9050919050565b60006020820190508181036000830152612b2381612742565b9050919050565b60006020820190508181036000830152612b4381612765565b9050919050565b60006020820190508181036000830152612b6381612788565b9050919050565b60006020820190508181036000830152612b83816127ab565b9050919050565b60006020820190508181036000830152612ba3816127ce565b9050919050565b60006020820190508181036000830152612bc3816127f1565b9050919050565b60006020820190508181036000830152612be381612814565b9050919050565b60006020820190508181036000830152612c048184612837565b905092915050565b6000602082019050612c2160008301846128e2565b92915050565b6000612c31612c42565b9050612c3d8282612f22565b919050565b6000604051905090565b600067ffffffffffffffff821115612c6757612c6661305a565b5b612c7082613089565b9050602081019050919050565b600067ffffffffffffffff821115612c9857612c9761305a565b5b612ca182613089565b9050602081019050919050565b6000819050602082019050919050565b600081519050919050565b600081519050919050565b600081519050919050565b6000602082019050919050565b600082825260208201905092915050565b600082825260208201905092915050565b600082825260208201905092915050565b600082825260208201905092915050565b600081905092915050565b6000612d4682612e97565b9150612d5183612e97565b9250827fffffffffffffffffffffffffffffffffffffffffffffffffffffffffffffffff03821115612d8657612d85612fcd565b5b828201905092915050565b6000612d9c82612ea1565b9150612da783612ea1565b92508260ff03821115612dbd57612dbc612fcd565b5b828201905092915050565b6000612dd382612e97565b9150612dde83612e97565b925082612dee57612ded612ffc565b5b828204905092915050565b6000612e0482612e97565b9150612e0f83612e97565b925082821015612e2257612e21612fcd565b5b828203905092915050565b6000612e3882612e77565b9050919050565b60008115159050919050565b60007fffffffff0000000000000000000000000000000000000000000000000000000082169050919050565b600073ffffffffffffffffffffffffffffffffffffffff82169050919050565b6000819050919050565b600060ff82169050919050565b82818337600083830152505050565b60005b83811015612edb578082015181840152602081019050612ec0565b83811115612eea576000848401525b50505050565b60006002820490506001821680612f0857607f821691505b60208210811415612f1c57612f1b61302b565b5b50919050565b612f2b82613089565b810181811067ffffffffffffffff82111715612f4a57612f4961305a565b5b80604052505050565b6000612f5e82612e97565b91507fffffffffffffffffffffffffffffffffffffffffffffffffffffffffffffffff821415612f9157612f90612fcd565b5b600182019050919050565b6000612fa782612e97565b9150612fb283612e97565b925082612fc257612fc1612ffc565b5b828206905092915050565b7f4e487b7100000000000000000000000000000000000000000000000000000000600052601160045260246000fd5b7f4e487b7100000000000000000000000000000000000000000000000000000000600052601260045260246000fd5b7f4e487b7100000000000000000000000000000000000000000000000000000000600052602260045260246000fd5b7f4e487b7100000000000000000000000000000000000000000000000000000000600052604160045260246000fd5b6000601f19601f8301169050919050565b7f4552433732313a207472616e7366657220746f206e6f6e20455243373231526560008201527f63656976657220696d706c656d656e7465720000000000000000000000000000602082015250565b7f4f776e61626c653a206e6577206f776e657220697320746865207a65726f206160008201527f6464726573730000000000000000000000000000000000000000000000000000602082015250565b7f4552433732313a20746f6b656e20616c7265616479206d696e74656400000000600082015250565b7f4552433732313a207472616e7366657220746f20746865207a65726f2061646460008201527f7265737300000000000000000000000000000000000000000000000000000000602082015250565b7f4552433732313a20617070726f766520746f2063616c6c657200000000000000600082015250565b7f4552433732313a206f70657261746f7220717565727920666f72206e6f6e657860008201527f697374656e7420746f6b656e0000000000000000000000000000000000000000602082015250565b7f4552433732313a20617070726f76652063616c6c6572206973206e6f74206f7760008201527f6e6572206e6f7220617070726f76656420666f7220616c6c0000000000000000602082015250565b7f4552433732313a2062616c616e636520717565727920666f7220746865207a6560008201527f726f206164647265737300000000000000000000000000000000000000000000602082015250565b7f4552433732313a206f776e657220717565727920666f72206e6f6e657869737460008201527f656e7420746f6b656e0000000000000000000000000000000000000000000000602082015250565b7f4552433732313a206d696e7420746f20746865207a65726f2061646472657373600082015250565b7f4552433732313a20617070726f76656420717565727920666f72206e6f6e657860008201527f697374656e7420746f6b656e0000000000000000000000000000000000000000602082015250565b7f4f776e61626c653a2063616c6c6572206973206e6f7420746865206f776e6572600082015250565b7f4552433732313a207472616e73666572206f6620746f6b656e2074686174206960008201527f73206e6f74206f776e0000000000000000000000000000000000000000000000602082015250565b7f4552433732314d657461646174613a2055524920717565727920666f72206e6f60008201527f6e6578697374656e7420746f6b656e0000000000000000000000000000000000602082015250565b7f4552433732313a20617070726f76616c20746f2063757272656e74206f776e6560008201527f7200000000000000000000000000000000000000000000000000000000000000602082015250565b7f4552433732313a207472616e736665722063616c6c6572206973206e6f74206f60008201527f776e6572206e6f7220617070726f766564000000000000000000000000000000602082015250565b6134fb81612e2d565b811461350657600080fd5b50565b61351281612e3f565b811461351d57600080fd5b50565b61352981612e4b565b811461353457600080fd5b50565b61354081612e97565b811461354b57600080fd5b50565b61355781612ea1565b811461356257600080fd5b5056fea264697066735822122071be69e0cbc051c38ed75573d685fae5860f66d90913c240023b13e8ec8951ca64736f6c63430008040033",
  "immutableReferences": {},
  "source": "pragma solidity 0.8.4;\r\n\r\nimport \"../node_modules/@openzeppelin/contracts/token/ERC721/ERC721.sol\"; //token framework\r\nimport \"../node_modules/@openzeppelin/contracts/access/Ownable.sol\"; //management of permissions\r\n\r\ncontract Token is ERC721, Ownable {\r\n    struct Enjimon {\r\n        string enjimonName;\r\n        uint8 damage; //0-255\r\n        uint8 magic; \r\n        uint256 endurance;\r\n        uint8 level;\r\n        uint256 lastMeal;\r\n        uint256 lastTrained;\r\n    }\r\n\r\n    uint nextId = 0;\r\n    uint fTeen = 900; //rough interval of 15 mins\r\n\r\n    mapping(uint256 => Enjimon) private _tokenDetails;\r\n\r\n    constructor(string memory name, string memory symbol) ERC721(name, symbol){}\r\n\r\n    function mint(string memory enjimonName, uint8 damage, uint8 magic, uint endurance, uint8 level) public onlyOwner {\r\n\r\n        _tokenDetails[nextId] = Enjimon(enjimonName, damage, magic, endurance, level, block.timestamp, block.timestamp);\r\n        \r\n        _safeMint(msg.sender, nextId);\r\n        \r\n        nextId++;\r\n   \r\n    }\r\n\r\n    function feed(uint256 tokenId) public {\r\n        Enjimon storage enjimon =_tokenDetails[tokenId]; \r\n        \r\n        require(enjimon.lastMeal + enjimon.endurance > block.timestamp);\r\n        enjimon.lastMeal = block.timestamp;\r\n    }\r\n\r\n    \r\n   function train(uint256 tokenId) public {\r\n        Enjimon storage enjimon =_tokenDetails[tokenId];\r\n\r\n        require(block.timestamp > enjimon.lastTrained + fTeen);\r\n        enjimon.lastTrained = block.timestamp;\r\n        enjimon.level+=1;\r\n\r\n    }\r\n \r\n function getTokenDetails(uint tokenId) public view returns(Enjimon memory){\r\n        return _tokenDetails[tokenId];\r\n }\r\n\r\n function getAllTokensForUser(address user) public view returns (uint256[] memory){\r\n     uint256 tokenCount = balanceOf(user);\r\n     if(tokenCount == 0)\r\n        {\r\n            return new uint256[](0);\r\n        }\r\n    else\r\n        {\r\n            uint256[] memory result = new uint256[](tokenCount);\r\n            uint256 totalEnjimon = nextId;\r\n            uint256 i;\r\n            uint256 resIndex = 0;\r\n\r\n            for(i = 0; i < totalEnjimon; i++){\r\n                if(ownerOf(i) == user)\r\n                    {\r\n                        result[resIndex] = i;\r\n                        resIndex++;\r\n                    }\r\n            }\r\n                return result;\r\n        }\r\n }\r\n\r\n    //requires enjimon to be alive or they can never transfer the token\r\n    function _beforeTokenTransfer(address from, address to, uint256 tokenId) internal override {\r\n        Enjimon storage enjimon =_tokenDetails[tokenId];\r\n        \r\n        require(enjimon.lastMeal + enjimon.endurance > block.timestamp); //must be alive\r\n    }\r\n\r\n\r\n}\r\n",
  "sourcePath": "E:/Web3 Games/NFT-GAMES/contracts/token.sol",
  "compiler": {
    "name": "solc",
    "version": "0.8.4+commit.c7e474f2.Emscripten.clang"
  },
  "schemaVersion": "3.3.4",
  "updatedAt": "2021-08-05T15:15:54.471Z",
  "networkType": "ethereum",
  "devdoc": {
    "kind": "dev",
    "methods": {
      "approve(address,uint256)": {
        "details": "See {IERC721-approve}."
      },
      "balanceOf(address)": {
        "details": "See {IERC721-balanceOf}."
      },
      "getApproved(uint256)": {
        "details": "See {IERC721-getApproved}."
      },
      "isApprovedForAll(address,address)": {
        "details": "See {IERC721-isApprovedForAll}."
      },
      "name()": {
        "details": "See {IERC721Metadata-name}."
      },
      "owner()": {
        "details": "Returns the address of the current owner."
      },
      "ownerOf(uint256)": {
        "details": "See {IERC721-ownerOf}."
      },
      "renounceOwnership()": {
        "details": "Leaves the contract without owner. It will not be possible to call `onlyOwner` functions anymore. Can only be called by the current owner. NOTE: Renouncing ownership will leave the contract without an owner, thereby removing any functionality that is only available to the owner."
      },
      "safeTransferFrom(address,address,uint256)": {
        "details": "See {IERC721-safeTransferFrom}."
      },
      "safeTransferFrom(address,address,uint256,bytes)": {
        "details": "See {IERC721-safeTransferFrom}."
      },
      "setApprovalForAll(address,bool)": {
        "details": "See {IERC721-setApprovalForAll}."
      },
      "supportsInterface(bytes4)": {
        "details": "See {IERC165-supportsInterface}."
      },
      "symbol()": {
        "details": "See {IERC721Metadata-symbol}."
      },
      "tokenURI(uint256)": {
        "details": "See {IERC721Metadata-tokenURI}."
      },
      "transferFrom(address,address,uint256)": {
        "details": "See {IERC721-transferFrom}."
      },
      "transferOwnership(address)": {
        "details": "Transfers ownership of the contract to a new account (`newOwner`). Can only be called by the current owner."
      }
    },
    "version": 1
  },
  "userdoc": {
    "kind": "user",
    "methods": {},
    "version": 1
  }
}