{
  "contractName": "Token",
  "abi": [
    {
      "inputs": [
        {
          "internalType": "string",
          "name": "name",
          "type": "string"
        },
        {
          "internalType": "string",
          "name": "symbol",
          "type": "string"
        }
      ],
      "stateMutability": "nonpayable",
      "type": "constructor"
    },
    {
      "anonymous": false,
      "inputs": [
        {
          "indexed": true,
          "internalType": "address",
          "name": "owner",
          "type": "address"
        },
        {
          "indexed": true,
          "internalType": "address",
          "name": "approved",
          "type": "address"
        },
        {
          "indexed": true,
          "internalType": "uint256",
          "name": "tokenId",
          "type": "uint256"
        }
      ],
      "name": "Approval",
      "type": "event"
    },
    {
      "anonymous": false,
      "inputs": [
        {
          "indexed": true,
          "internalType": "address",
          "name": "owner",
          "type": "address"
        },
        {
          "indexed": true,
          "internalType": "address",
          "name": "operator",
          "type": "address"
        },
        {
          "indexed": false,
          "internalType": "bool",
          "name": "approved",
          "type": "bool"
        }
      ],
      "name": "ApprovalForAll",
      "type": "event"
    },
    {
      "anonymous": false,
      "inputs": [
        {
          "indexed": true,
          "internalType": "address",
          "name": "previousOwner",
          "type": "address"
        },
        {
          "indexed": true,
          "internalType": "address",
          "name": "newOwner",
          "type": "address"
        }
      ],
      "name": "OwnershipTransferred",
      "type": "event"
    },
    {
      "anonymous": false,
      "inputs": [
        {
          "indexed": true,
          "internalType": "address",
          "name": "from",
          "type": "address"
        },
        {
          "indexed": true,
          "internalType": "address",
          "name": "to",
          "type": "address"
        },
        {
          "indexed": true,
          "internalType": "uint256",
          "name": "tokenId",
          "type": "uint256"
        }
      ],
      "name": "Transfer",
      "type": "event"
    },
    {
      "inputs": [
        {
          "internalType": "address",
          "name": "to",
          "type": "address"
        },
        {
          "internalType": "uint256",
          "name": "tokenId",
          "type": "uint256"
        }
      ],
      "name": "approve",
      "outputs": [],
      "stateMutability": "nonpayable",
      "type": "function"
    },
    {
      "inputs": [
        {
          "internalType": "address",
          "name": "owner",
          "type": "address"
        }
      ],
      "name": "balanceOf",
      "outputs": [
        {
          "internalType": "uint256",
          "name": "",
          "type": "uint256"
        }
      ],
      "stateMutability": "view",
      "type": "function",
      "constant": true
    },
    {
      "inputs": [
        {
          "internalType": "uint256",
          "name": "tokenId",
          "type": "uint256"
        }
      ],
      "name": "getApproved",
      "outputs": [
        {
          "internalType": "address",
          "name": "",
          "type": "address"
        }
      ],
      "stateMutability": "view",
      "type": "function",
      "constant": true
    },
    {
      "inputs": [
        {
          "internalType": "address",
          "name": "owner",
          "type": "address"
        },
        {
          "internalType": "address",
          "name": "operator",
          "type": "address"
        }
      ],
      "name": "isApprovedForAll",
      "outputs": [
        {
          "internalType": "bool",
          "name": "",
          "type": "bool"
        }
      ],
      "stateMutability": "view",
      "type": "function",
      "constant": true
    },
    {
      "inputs": [],
      "name": "name",
      "outputs": [
        {
          "internalType": "string",
          "name": "",
          "type": "string"
        }
      ],
      "stateMutability": "view",
      "type": "function",
      "constant": true
    },
    {
      "inputs": [],
      "name": "owner",
      "outputs": [
        {
          "internalType": "address",
          "name": "",
          "type": "address"
        }
      ],
      "stateMutability": "view",
      "type": "function",
      "constant": true
    },
    {
      "inputs": [
        {
          "internalType": "uint256",
          "name": "tokenId",
          "type": "uint256"
        }
      ],
      "name": "ownerOf",
      "outputs": [
        {
          "internalType": "address",
          "name": "",
          "type": "address"
        }
      ],
      "stateMutability": "view",
      "type": "function",
      "constant": true
    },
    {
      "inputs": [],
      "name": "renounceOwnership",
      "outputs": [],
      "stateMutability": "nonpayable",
      "type": "function"
    },
    {
      "inputs": [
        {
          "internalType": "address",
          "name": "from",
          "type": "address"
        },
        {
          "internalType": "address",
          "name": "to",
          "type": "address"
        },
        {
          "internalType": "uint256",
          "name": "tokenId",
          "type": "uint256"
        }
      ],
      "name": "safeTransferFrom",
      "outputs": [],
      "stateMutability": "nonpayable",
      "type": "function"
    },
    {
      "inputs": [
        {
          "internalType": "address",
          "name": "from",
          "type": "address"
        },
        {
          "internalType": "address",
          "name": "to",
          "type": "address"
        },
        {
          "internalType": "uint256",
          "name": "tokenId",
          "type": "uint256"
        },
        {
          "internalType": "bytes",
          "name": "_data",
          "type": "bytes"
        }
      ],
      "name": "safeTransferFrom",
      "outputs": [],
      "stateMutability": "nonpayable",
      "type": "function"
    },
    {
      "inputs": [
        {
          "internalType": "address",
          "name": "operator",
          "type": "address"
        },
        {
          "internalType": "bool",
          "name": "approved",
          "type": "bool"
        }
      ],
      "name": "setApprovalForAll",
      "outputs": [],
      "stateMutability": "nonpayable",
      "type": "function"
    },
    {
      "inputs": [
        {
          "internalType": "bytes4",
          "name": "interfaceId",
          "type": "bytes4"
        }
      ],
      "name": "supportsInterface",
      "outputs": [
        {
          "internalType": "bool",
          "name": "",
          "type": "bool"
        }
      ],
      "stateMutability": "view",
      "type": "function",
      "constant": true
    },
    {
      "inputs": [],
      "name": "symbol",
      "outputs": [
        {
          "internalType": "string",
          "name": "",
          "type": "string"
        }
      ],
      "stateMutability": "view",
      "type": "function",
      "constant": true
    },
    {
      "inputs": [
        {
          "internalType": "uint256",
          "name": "tokenId",
          "type": "uint256"
        }
      ],
      "name": "tokenURI",
      "outputs": [
        {
          "internalType": "string",
          "name": "",
          "type": "string"
        }
      ],
      "stateMutability": "view",
      "type": "function",
      "constant": true
    },
    {
      "inputs": [
        {
          "internalType": "address",
          "name": "from",
          "type": "address"
        },
        {
          "internalType": "address",
          "name": "to",
          "type": "address"
        },
        {
          "internalType": "uint256",
          "name": "tokenId",
          "type": "uint256"
        }
      ],
      "name": "transferFrom",
      "outputs": [],
      "stateMutability": "nonpayable",
      "type": "function"
    },
    {
      "inputs": [
        {
          "internalType": "address",
          "name": "newOwner",
          "type": "address"
        }
      ],
      "name": "transferOwnership",
      "outputs": [],
      "stateMutability": "nonpayable",
      "type": "function"
    },
    {
      "inputs": [
        {
          "internalType": "string",
          "name": "enjimonName",
          "type": "string"
        },
        {
          "internalType": "uint8",
          "name": "damage",
          "type": "uint8"
        },
        {
          "internalType": "uint8",
          "name": "magic",
          "type": "uint8"
        },
        {
          "internalType": "uint256",
          "name": "endurance",
          "type": "uint256"
        },
        {
          "internalType": "uint8",
          "name": "level",
          "type": "uint8"
        }
      ],
      "name": "mint",
      "outputs": [],
      "stateMutability": "nonpayable",
      "type": "function"
    },
    {
      "inputs": [
        {
          "internalType": "uint256",
          "name": "tokenId",
          "type": "uint256"
        }
      ],
      "name": "feed",
      "outputs": [],
      "stateMutability": "nonpayable",
      "type": "function"
    },
    {
      "inputs": [
        {
          "internalType": "uint256",
          "name": "tokenId",
          "type": "uint256"
        }
      ],
      "name": "train",
      "outputs": [],
      "stateMutability": "nonpayable",
      "type": "function"
    },
    {
      "inputs": [
        {
          "internalType": "uint256",
          "name": "tokenId",
          "type": "uint256"
        }
      ],
      "name": "getTokenDetails",
      "outputs": [
        {
          "components": [
            {
              "internalType": "string",
              "name": "enjimonName",
              "type": "string"
            },
            {
              "internalType": "uint8",
              "name": "damage",
              "type": "uint8"
            },
            {
              "internalType": "uint8",
              "name": "magic",
              "type": "uint8"
            },
            {
              "internalType": "uint256",
              "name": "endurance",
              "type": "uint256"
            },
            {
              "internalType": "uint8",
              "name": "level",
              "type": "uint8"
            },
            {
              "internalType": "uint256",
              "name": "lastMeal",
              "type": "uint256"
            },
            {
              "internalType": "uint256",
              "name": "lastTrained",
              "type": "uint256"
            }
          ],
          "internalType": "struct Token.Enjimon",
          "name": "",
          "type": "tuple"
        }
      ],
      "stateMutability": "view",
      "type": "function",
      "constant": true
    }
  ],
  "bytecode": "0x608060405260006007556103846008553480156200001c57600080fd5b506040516200374238038062003742833981810160405281019062000042919062000290565b818181600090805190602001906200005c9291906200016e565b508060019080519060200190620000759291906200016e565b505050620000986200008c620000a060201b60201c565b620000a860201b60201c565b505062000473565b600033905090565b6000600660009054906101000a900473ffffffffffffffffffffffffffffffffffffffff16905081600660006101000a81548173ffffffffffffffffffffffffffffffffffffffff021916908373ffffffffffffffffffffffffffffffffffffffff1602179055508173ffffffffffffffffffffffffffffffffffffffff168173ffffffffffffffffffffffffffffffffffffffff167f8be0079c531659141344cd1fd0a4f28419497f9722a3daafe3b4186f6b6457e060405160405180910390a35050565b8280546200017c9062000398565b90600052602060002090601f016020900481019282620001a05760008555620001ec565b82601f10620001bb57805160ff1916838001178555620001ec565b82800160010185558215620001ec579182015b82811115620001eb578251825591602001919060010190620001ce565b5b509050620001fb9190620001ff565b5090565b5b808211156200021a57600081600090555060010162000200565b5090565b6000620002356200022f846200032c565b62000303565b9050828152602081018484840111156200024e57600080fd5b6200025b84828562000362565b509392505050565b600082601f8301126200027557600080fd5b8151620002878482602086016200021e565b91505092915050565b60008060408385031215620002a457600080fd5b600083015167ffffffffffffffff811115620002bf57600080fd5b620002cd8582860162000263565b925050602083015167ffffffffffffffff811115620002eb57600080fd5b620002f98582860162000263565b9150509250929050565b60006200030f62000322565b90506200031d8282620003ce565b919050565b6000604051905090565b600067ffffffffffffffff8211156200034a576200034962000433565b5b620003558262000462565b9050602081019050919050565b60005b838110156200038257808201518184015260208101905062000365565b8381111562000392576000848401525b50505050565b60006002820490506001821680620003b157607f821691505b60208210811415620003c857620003c762000404565b5b50919050565b620003d98262000462565b810181811067ffffffffffffffff82111715620003fb57620003fa62000433565b5b80604052505050565b7f4e487b7100000000000000000000000000000000000000000000000000000000600052602260045260246000fd5b7f4e487b7100000000000000000000000000000000000000000000000000000000600052604160045260246000fd5b6000601f19601f8301169050919050565b6132bf80620004836000396000f3fe608060405234801561001057600080fd5b506004361061012c5760003560e01c80638da5cb5b116100ad578063c1e0372811610071578063c1e0372814610319578063c87b56dd14610349578063e985e9c514610379578063f2fde38b146103a9578063f59dfdfb146103c55761012c565b80638da5cb5b1461028957806395d89b41146102a75780639be1539f146102c5578063a22cb465146102e1578063b88d4fde146102fd5761012c565b8063368004ed116100f4578063368004ed146101e757806342842e0e146102035780636352211e1461021f57806370a082311461024f578063715018a61461027f5761012c565b806301ffc9a71461013157806306fdde0314610161578063081812fc1461017f578063095ea7b3146101af57806323b872dd146101cb575b600080fd5b61014b60048036038101906101469190612182565b6103e1565b604051610158919061270a565b60405180910390f35b6101696104c3565b6040516101769190612725565b60405180910390f35b61019960048036038101906101949190612263565b610555565b6040516101a691906126a3565b60405180910390f35b6101c960048036038101906101c49190612146565b6105da565b005b6101e560048036038101906101e09190612040565b6106f2565b005b61020160048036038101906101fc9190612263565b610752565b005b61021d60048036038101906102189190612040565b6107cc565b005b61023960048036038101906102349190612263565b6107ec565b60405161024691906126a3565b60405180910390f35b61026960048036038101906102649190611fdb565b61089e565b6040516102769190612969565b60405180910390f35b610287610956565b005b6102916109de565b60405161029e91906126a3565b60405180910390f35b6102af610a08565b6040516102bc9190612725565b60405180910390f35b6102df60048036038101906102da91906121d4565b610a9a565b005b6102fb60048036038101906102f6919061210a565b610c33565b005b6103176004803603810190610312919061208f565b610db4565b005b610333600480360381019061032e9190612263565b610e16565b6040516103409190612947565b60405180910390f35b610363600480360381019061035e9190612263565b610f4a565b6040516103709190612725565b60405180910390f35b610393600480360381019061038e9190612004565b610ff1565b6040516103a0919061270a565b60405180910390f35b6103c360048036038101906103be9190611fdb565b611085565b005b6103df60048036038101906103da9190612263565b61117d565b005b60007f80ac58cd000000000000000000000000000000000000000000000000000000007bffffffffffffffffffffffffffffffffffffffffffffffffffffffff1916827bffffffffffffffffffffffffffffffffffffffffffffffffffffffff191614806104ac57507f5b5e139f000000000000000000000000000000000000000000000000000000007bffffffffffffffffffffffffffffffffffffffffffffffffffffffff1916827bffffffffffffffffffffffffffffffffffffffffffffffffffffffff1916145b806104bc57506104bb826111c0565b5b9050919050565b6060600080546104d290612c14565b80601f01602080910402602001604051908101604052809291908181526020018280546104fe90612c14565b801561054b5780601f106105205761010080835404028352916020019161054b565b820191906000526020600020905b81548152906001019060200180831161052e57829003601f168201915b5050505050905090565b60006105608261122a565b61059f576040517f08c379a000000000000000000000000000000000000000000000000000000000815260040161059690612887565b60405180910390fd5b6004600083815260200190815260200160002060009054906101000a900473ffffffffffffffffffffffffffffffffffffffff169050919050565b60006105e5826107ec565b90508073ffffffffffffffffffffffffffffffffffffffff168373ffffffffffffffffffffffffffffffffffffffff161415610656576040517f08c379a000000000000000000000000000000000000000000000000000000000815260040161064d90612907565b60405180910390fd5b8073ffffffffffffffffffffffffffffffffffffffff16610675611296565b73ffffffffffffffffffffffffffffffffffffffff1614806106a457506106a38161069e611296565b610ff1565b5b6106e3576040517f08c379a00000000000000000000000000000000000000000000000000000000081526004016106da90612807565b60405180910390fd5b6106ed838361129e565b505050565b6107036106fd611296565b82611357565b610742576040517f08c379a000000000000000000000000000000000000000000000000000000000815260040161073990612927565b60405180910390fd5b61074d838383611435565b505050565b6000600960008381526020019081526020016000209050600854816005015461077b9190612a5f565b421161078657600080fd5b42816005018190555060018160030160008282829054906101000a900460ff166107b09190612ab5565b92506101000a81548160ff021916908360ff1602179055505050565b6107e783838360405180602001604052806000815250610db4565b505050565b6000806002600084815260200190815260200160002060009054906101000a900473ffffffffffffffffffffffffffffffffffffffff169050600073ffffffffffffffffffffffffffffffffffffffff168173ffffffffffffffffffffffffffffffffffffffff161415610895576040517f08c379a000000000000000000000000000000000000000000000000000000000815260040161088c90612847565b60405180910390fd5b80915050919050565b60008073ffffffffffffffffffffffffffffffffffffffff168273ffffffffffffffffffffffffffffffffffffffff16141561090f576040517f08c379a000000000000000000000000000000000000000000000000000000000815260040161090690612827565b60405180910390fd5b600360008373ffffffffffffffffffffffffffffffffffffffff1673ffffffffffffffffffffffffffffffffffffffff168152602001908152602001600020549050919050565b61095e611296565b73ffffffffffffffffffffffffffffffffffffffff1661097c6109de565b73ffffffffffffffffffffffffffffffffffffffff16146109d2576040517f08c379a00000000000000000000000000000000000000000000000000000000081526004016109c9906128a7565b60405180910390fd5b6109dc6000611691565b565b6000600660009054906101000a900473ffffffffffffffffffffffffffffffffffffffff16905090565b606060018054610a1790612c14565b80601f0160208091040260200160405190810160405280929190818152602001828054610a4390612c14565b8015610a905780601f10610a6557610100808354040283529160200191610a90565b820191906000526020600020905b815481529060010190602001808311610a7357829003601f168201915b5050505050905090565b610aa2611296565b73ffffffffffffffffffffffffffffffffffffffff16610ac06109de565b73ffffffffffffffffffffffffffffffffffffffff1614610b16576040517f08c379a0000000000000000000000000000000000000000000000000000000008152600401610b0d906128a7565b60405180910390fd5b6040518060e001604052808681526020018560ff1681526020018460ff1681526020018381526020018260ff168152602001428152602001428152506009600060075481526020019081526020016000206000820151816000019080519060200190610b83929190611da4565b5060208201518160010160006101000a81548160ff021916908360ff16021790555060408201518160010160016101000a81548160ff021916908360ff1602179055506060820151816002015560808201518160030160006101000a81548160ff021916908360ff16021790555060a0820151816004015560c08201518160050155905050610c1433600754611757565b60076000815480929190610c2790612c77565b91905055505050505050565b610c3b611296565b73ffffffffffffffffffffffffffffffffffffffff168273ffffffffffffffffffffffffffffffffffffffff161415610ca9576040517f08c379a0000000000000000000000000000000000000000000000000000000008152600401610ca0906127c7565b60405180910390fd5b8060056000610cb6611296565b73ffffffffffffffffffffffffffffffffffffffff1673ffffffffffffffffffffffffffffffffffffffff16815260200190815260200160002060008473ffffffffffffffffffffffffffffffffffffffff1673ffffffffffffffffffffffffffffffffffffffff16815260200190815260200160002060006101000a81548160ff0219169083151502179055508173ffffffffffffffffffffffffffffffffffffffff16610d63611296565b73ffffffffffffffffffffffffffffffffffffffff167f17307eab39ab6107e8899845ad3d59bd9653f200f220920489ca2b5937696c3183604051610da8919061270a565b60405180910390a35050565b610dc5610dbf611296565b83611357565b610e04576040517f08c379a0000000000000000000000000000000000000000000000000000000008152600401610dfb90612927565b60405180910390fd5b610e1084848484611775565b50505050565b610e1e611e2a565b600960008381526020019081526020016000206040518060e0016040529081600082018054610e4c90612c14565b80601f0160208091040260200160405190810160405280929190818152602001828054610e7890612c14565b8015610ec55780601f10610e9a57610100808354040283529160200191610ec5565b820191906000526020600020905b815481529060010190602001808311610ea857829003601f168201915b505050505081526020016001820160009054906101000a900460ff1660ff1660ff1681526020016001820160019054906101000a900460ff1660ff1660ff168152602001600282015481526020016003820160009054906101000a900460ff1660ff1660ff168152602001600482015481526020016005820154815250509050919050565b6060610f558261122a565b610f94576040517f08c379a0000000000000000000000000000000000000000000000000000000008152600401610f8b906128e7565b60405180910390fd5b6000610f9e6117d1565b90506000815111610fbe5760405180602001604052806000815250610fe9565b80610fc8846117e8565b604051602001610fd992919061267f565b6040516020818303038152906040525b915050919050565b6000600560008473ffffffffffffffffffffffffffffffffffffffff1673ffffffffffffffffffffffffffffffffffffffff16815260200190815260200160002060008373ffffffffffffffffffffffffffffffffffffffff1673ffffffffffffffffffffffffffffffffffffffff16815260200190815260200160002060009054906101000a900460ff16905092915050565b61108d611296565b73ffffffffffffffffffffffffffffffffffffffff166110ab6109de565b73ffffffffffffffffffffffffffffffffffffffff1614611101576040517f08c379a00000000000000000000000000000000000000000000000000000000081526004016110f8906128a7565b60405180910390fd5b600073ffffffffffffffffffffffffffffffffffffffff168173ffffffffffffffffffffffffffffffffffffffff161415611171576040517f08c379a000000000000000000000000000000000000000000000000000000000815260040161116890612767565b60405180910390fd5b61117a81611691565b50565b600060096000838152602001908152602001600020905042816002015482600401546111a99190612a5f565b116111b357600080fd5b4281600401819055505050565b60007f01ffc9a7000000000000000000000000000000000000000000000000000000007bffffffffffffffffffffffffffffffffffffffffffffffffffffffff1916827bffffffffffffffffffffffffffffffffffffffffffffffffffffffff1916149050919050565b60008073ffffffffffffffffffffffffffffffffffffffff166002600084815260200190815260200160002060009054906101000a900473ffffffffffffffffffffffffffffffffffffffff1673ffffffffffffffffffffffffffffffffffffffff1614159050919050565b600033905090565b816004600083815260200190815260200160002060006101000a81548173ffffffffffffffffffffffffffffffffffffffff021916908373ffffffffffffffffffffffffffffffffffffffff160217905550808273ffffffffffffffffffffffffffffffffffffffff16611311836107ec565b73ffffffffffffffffffffffffffffffffffffffff167f8c5be1e5ebec7d5bd14f71427d1e84f3dd0314c0f7b2291e5b200ac8c7c3b92560405160405180910390a45050565b60006113628261122a565b6113a1576040517f08c379a0000000000000000000000000000000000000000000000000000000008152600401611398906127e7565b60405180910390fd5b60006113ac836107ec565b90508073ffffffffffffffffffffffffffffffffffffffff168473ffffffffffffffffffffffffffffffffffffffff16148061141b57508373ffffffffffffffffffffffffffffffffffffffff1661140384610555565b73ffffffffffffffffffffffffffffffffffffffff16145b8061142c575061142b8185610ff1565b5b91505092915050565b8273ffffffffffffffffffffffffffffffffffffffff16611455826107ec565b73ffffffffffffffffffffffffffffffffffffffff16146114ab576040517f08c379a00000000000000000000000000000000000000000000000000000000081526004016114a2906128c7565b60405180910390fd5b600073ffffffffffffffffffffffffffffffffffffffff168273ffffffffffffffffffffffffffffffffffffffff16141561151b576040517f08c379a0000000000000000000000000000000000000000000000000000000008152600401611512906127a7565b60405180910390fd5b611526838383611995565b61153160008261129e565b6001600360008573ffffffffffffffffffffffffffffffffffffffff1673ffffffffffffffffffffffffffffffffffffffff16815260200190815260200160002060008282546115819190612b1d565b925050819055506001600360008473ffffffffffffffffffffffffffffffffffffffff1673ffffffffffffffffffffffffffffffffffffffff16815260200190815260200160002060008282546115d89190612a5f565b92505081905550816002600083815260200190815260200160002060006101000a81548173ffffffffffffffffffffffffffffffffffffffff021916908373ffffffffffffffffffffffffffffffffffffffff160217905550808273ffffffffffffffffffffffffffffffffffffffff168473ffffffffffffffffffffffffffffffffffffffff167fddf252ad1be2c89b69c2b068fc378daa952ba7f163c4a11628f55a4df523b3ef60405160405180910390a4505050565b6000600660009054906101000a900473ffffffffffffffffffffffffffffffffffffffff16905081600660006101000a81548173ffffffffffffffffffffffffffffffffffffffff021916908373ffffffffffffffffffffffffffffffffffffffff1602179055508173ffffffffffffffffffffffffffffffffffffffff168173ffffffffffffffffffffffffffffffffffffffff167f8be0079c531659141344cd1fd0a4f28419497f9722a3daafe3b4186f6b6457e060405160405180910390a35050565b6117718282604051806020016040528060008152506119d1565b5050565b611780848484611435565b61178c84848484611a2c565b6117cb576040517f08c379a00000000000000000000000000000000000000000000000000000000081526004016117c290612747565b60405180910390fd5b50505050565b606060405180602001604052806000815250905090565b60606000821415611830576040518060400160405280600181526020017f30000000000000000000000000000000000000000000000000000000000000008152509050611990565b600082905060005b6000821461186257808061184b90612c77565b915050600a8261185b9190612aec565b9150611838565b60008167ffffffffffffffff8111156118a4577f4e487b7100000000000000000000000000000000000000000000000000000000600052604160045260246000fd5b6040519080825280601f01601f1916602001820160405280156118d65781602001600182028036833780820191505090505b5090505b60008514611989576001826118ef9190612b1d565b9150600a856118fe9190612cc0565b603061190a9190612a5f565b60f81b818381518110611946577f4e487b7100000000000000000000000000000000000000000000000000000000600052603260045260246000fd5b60200101907effffffffffffffffffffffffffffffffffffffffffffffffffffffffffffff1916908160001a905350600a856119829190612aec565b94506118da565b8093505050505b919050565b600060096000838152602001908152602001600020905042816002015482600401546119c19190612a5f565b116119cb57600080fd5b50505050565b6119db8383611bc3565b6119e86000848484611a2c565b611a27576040517f08c379a0000000000000000000000000000000000000000000000000000000008152600401611a1e90612747565b60405180910390fd5b505050565b6000611a4d8473ffffffffffffffffffffffffffffffffffffffff16611d91565b15611bb6578373ffffffffffffffffffffffffffffffffffffffff1663150b7a02611a76611296565b8786866040518563ffffffff1660e01b8152600401611a9894939291906126be565b602060405180830381600087803b158015611ab257600080fd5b505af1925050508015611ae357506040513d601f19601f82011682018060405250810190611ae091906121ab565b60015b611b66573d8060008114611b13576040519150601f19603f3d011682016040523d82523d6000602084013e611b18565b606091505b50600081511415611b5e576040517f08c379a0000000000000000000000000000000000000000000000000000000008152600401611b5590612747565b60405180910390fd5b805181602001fd5b63150b7a0260e01b7bffffffffffffffffffffffffffffffffffffffffffffffffffffffff1916817bffffffffffffffffffffffffffffffffffffffffffffffffffffffff191614915050611bbb565b600190505b949350505050565b600073ffffffffffffffffffffffffffffffffffffffff168273ffffffffffffffffffffffffffffffffffffffff161415611c33576040517f08c379a0000000000000000000000000000000000000000000000000000000008152600401611c2a90612867565b60405180910390fd5b611c3c8161122a565b15611c7c576040517f08c379a0000000000000000000000000000000000000000000000000000000008152600401611c7390612787565b60405180910390fd5b611c8860008383611995565b6001600360008473ffffffffffffffffffffffffffffffffffffffff1673ffffffffffffffffffffffffffffffffffffffff1681526020019081526020016000206000828254611cd89190612a5f565b92505081905550816002600083815260200190815260200160002060006101000a81548173ffffffffffffffffffffffffffffffffffffffff021916908373ffffffffffffffffffffffffffffffffffffffff160217905550808273ffffffffffffffffffffffffffffffffffffffff16600073ffffffffffffffffffffffffffffffffffffffff167fddf252ad1be2c89b69c2b068fc378daa952ba7f163c4a11628f55a4df523b3ef60405160405180910390a45050565b600080823b905060008111915050919050565b828054611db090612c14565b90600052602060002090601f016020900481019282611dd25760008555611e19565b82601f10611deb57805160ff1916838001178555611e19565b82800160010185558215611e19579182015b82811115611e18578251825591602001919060010190611dfd565b5b509050611e269190611e70565b5090565b6040518060e0016040528060608152602001600060ff168152602001600060ff16815260200160008152602001600060ff16815260200160008152602001600081525090565b5b80821115611e89576000816000905550600101611e71565b5090565b6000611ea0611e9b846129a9565b612984565b905082815260208101848484011115611eb857600080fd5b611ec3848285612bd2565b509392505050565b6000611ede611ed9846129da565b612984565b905082815260208101848484011115611ef657600080fd5b611f01848285612bd2565b509392505050565b600081359050611f1881613216565b92915050565b600081359050611f2d8161322d565b92915050565b600081359050611f4281613244565b92915050565b600081519050611f5781613244565b92915050565b600082601f830112611f6e57600080fd5b8135611f7e848260208601611e8d565b91505092915050565b600082601f830112611f9857600080fd5b8135611fa8848260208601611ecb565b91505092915050565b600081359050611fc08161325b565b92915050565b600081359050611fd581613272565b92915050565b600060208284031215611fed57600080fd5b6000611ffb84828501611f09565b91505092915050565b6000806040838503121561201757600080fd5b600061202585828601611f09565b925050602061203685828601611f09565b9150509250929050565b60008060006060848603121561205557600080fd5b600061206386828701611f09565b935050602061207486828701611f09565b925050604061208586828701611fb1565b9150509250925092565b600080600080608085870312156120a557600080fd5b60006120b387828801611f09565b94505060206120c487828801611f09565b93505060406120d587828801611fb1565b925050606085013567ffffffffffffffff8111156120f257600080fd5b6120fe87828801611f5d565b91505092959194509250565b6000806040838503121561211d57600080fd5b600061212b85828601611f09565b925050602061213c85828601611f1e565b9150509250929050565b6000806040838503121561215957600080fd5b600061216785828601611f09565b925050602061217885828601611fb1565b9150509250929050565b60006020828403121561219457600080fd5b60006121a284828501611f33565b91505092915050565b6000602082840312156121bd57600080fd5b60006121cb84828501611f48565b91505092915050565b600080600080600060a086880312156121ec57600080fd5b600086013567ffffffffffffffff81111561220657600080fd5b61221288828901611f87565b955050602061222388828901611fc6565b945050604061223488828901611fc6565b935050606061224588828901611fb1565b925050608061225688828901611fc6565b9150509295509295909350565b60006020828403121561227557600080fd5b600061228384828501611fb1565b91505092915050565b61229581612b51565b82525050565b6122a481612b63565b82525050565b60006122b582612a0b565b6122bf8185612a21565b93506122cf818560208601612be1565b6122d881612dad565b840191505092915050565b60006122ee82612a16565b6122f88185612a32565b9350612308818560208601612be1565b61231181612dad565b840191505092915050565b600061232782612a16565b6123318185612a43565b9350612341818560208601612be1565b61234a81612dad565b840191505092915050565b600061236082612a16565b61236a8185612a54565b935061237a818560208601612be1565b80840191505092915050565b6000612393603283612a43565b915061239e82612dbe565b604082019050919050565b60006123b6602683612a43565b91506123c182612e0d565b604082019050919050565b60006123d9601c83612a43565b91506123e482612e5c565b602082019050919050565b60006123fc602483612a43565b915061240782612e85565b604082019050919050565b600061241f601983612a43565b915061242a82612ed4565b602082019050919050565b6000612442602c83612a43565b915061244d82612efd565b604082019050919050565b6000612465603883612a43565b915061247082612f4c565b604082019050919050565b6000612488602a83612a43565b915061249382612f9b565b604082019050919050565b60006124ab602983612a43565b91506124b682612fea565b604082019050919050565b60006124ce602083612a43565b91506124d982613039565b602082019050919050565b60006124f1602c83612a43565b91506124fc82613062565b604082019050919050565b6000612514602083612a43565b915061251f826130b1565b602082019050919050565b6000612537602983612a43565b9150612542826130da565b604082019050919050565b600061255a602f83612a43565b915061256582613129565b604082019050919050565b600061257d602183612a43565b915061258882613178565b604082019050919050565b60006125a0603183612a43565b91506125ab826131c7565b604082019050919050565b600060e08301600083015184820360008601526125d382826122e3565b91505060208301516125e86020860182612670565b5060408301516125fb6040860182612670565b50606083015161260e6060860182612652565b5060808301516126216080860182612670565b5060a083015161263460a0860182612652565b5060c083015161264760c0860182612652565b508091505092915050565b61265b81612bbb565b82525050565b61266a81612bbb565b82525050565b61267981612bc5565b82525050565b600061268b8285612355565b91506126978284612355565b91508190509392505050565b60006020820190506126b8600083018461228c565b92915050565b60006080820190506126d3600083018761228c565b6126e0602083018661228c565b6126ed6040830185612661565b81810360608301526126ff81846122aa565b905095945050505050565b600060208201905061271f600083018461229b565b92915050565b6000602082019050818103600083015261273f818461231c565b905092915050565b6000602082019050818103600083015261276081612386565b9050919050565b60006020820190508181036000830152612780816123a9565b9050919050565b600060208201905081810360008301526127a0816123cc565b9050919050565b600060208201905081810360008301526127c0816123ef565b9050919050565b600060208201905081810360008301526127e081612412565b9050919050565b6000602082019050818103600083015261280081612435565b9050919050565b6000602082019050818103600083015261282081612458565b9050919050565b600060208201905081810360008301526128408161247b565b9050919050565b600060208201905081810360008301526128608161249e565b9050919050565b60006020820190508181036000830152612880816124c1565b9050919050565b600060208201905081810360008301526128a0816124e4565b9050919050565b600060208201905081810360008301526128c081612507565b9050919050565b600060208201905081810360008301526128e08161252a565b9050919050565b600060208201905081810360008301526129008161254d565b9050919050565b6000602082019050818103600083015261292081612570565b9050919050565b6000602082019050818103600083015261294081612593565b9050919050565b6000602082019050818103600083015261296181846125b6565b905092915050565b600060208201905061297e6000830184612661565b92915050565b600061298e61299f565b905061299a8282612c46565b919050565b6000604051905090565b600067ffffffffffffffff8211156129c4576129c3612d7e565b5b6129cd82612dad565b9050602081019050919050565b600067ffffffffffffffff8211156129f5576129f4612d7e565b5b6129fe82612dad565b9050602081019050919050565b600081519050919050565b600081519050919050565b600082825260208201905092915050565b600082825260208201905092915050565b600082825260208201905092915050565b600081905092915050565b6000612a6a82612bbb565b9150612a7583612bbb565b9250827fffffffffffffffffffffffffffffffffffffffffffffffffffffffffffffffff03821115612aaa57612aa9612cf1565b5b828201905092915050565b6000612ac082612bc5565b9150612acb83612bc5565b92508260ff03821115612ae157612ae0612cf1565b5b828201905092915050565b6000612af782612bbb565b9150612b0283612bbb565b925082612b1257612b11612d20565b5b828204905092915050565b6000612b2882612bbb565b9150612b3383612bbb565b925082821015612b4657612b45612cf1565b5b828203905092915050565b6000612b5c82612b9b565b9050919050565b60008115159050919050565b60007fffffffff0000000000000000000000000000000000000000000000000000000082169050919050565b600073ffffffffffffffffffffffffffffffffffffffff82169050919050565b6000819050919050565b600060ff82169050919050565b82818337600083830152505050565b60005b83811015612bff578082015181840152602081019050612be4565b83811115612c0e576000848401525b50505050565b60006002820490506001821680612c2c57607f821691505b60208210811415612c4057612c3f612d4f565b5b50919050565b612c4f82612dad565b810181811067ffffffffffffffff82111715612c6e57612c6d612d7e565b5b80604052505050565b6000612c8282612bbb565b91507fffffffffffffffffffffffffffffffffffffffffffffffffffffffffffffffff821415612cb557612cb4612cf1565b5b600182019050919050565b6000612ccb82612bbb565b9150612cd683612bbb565b925082612ce657612ce5612d20565b5b828206905092915050565b7f4e487b7100000000000000000000000000000000000000000000000000000000600052601160045260246000fd5b7f4e487b7100000000000000000000000000000000000000000000000000000000600052601260045260246000fd5b7f4e487b7100000000000000000000000000000000000000000000000000000000600052602260045260246000fd5b7f4e487b7100000000000000000000000000000000000000000000000000000000600052604160045260246000fd5b6000601f19601f8301169050919050565b7f4552433732313a207472616e7366657220746f206e6f6e20455243373231526560008201527f63656976657220696d706c656d656e7465720000000000000000000000000000602082015250565b7f4f776e61626c653a206e6577206f776e657220697320746865207a65726f206160008201527f6464726573730000000000000000000000000000000000000000000000000000602082015250565b7f4552433732313a20746f6b656e20616c7265616479206d696e74656400000000600082015250565b7f4552433732313a207472616e7366657220746f20746865207a65726f2061646460008201527f7265737300000000000000000000000000000000000000000000000000000000602082015250565b7f4552433732313a20617070726f766520746f2063616c6c657200000000000000600082015250565b7f4552433732313a206f70657261746f7220717565727920666f72206e6f6e657860008201527f697374656e7420746f6b656e0000000000000000000000000000000000000000602082015250565b7f4552433732313a20617070726f76652063616c6c6572206973206e6f74206f7760008201527f6e6572206e6f7220617070726f76656420666f7220616c6c0000000000000000602082015250565b7f4552433732313a2062616c616e636520717565727920666f7220746865207a6560008201527f726f206164647265737300000000000000000000000000000000000000000000602082015250565b7f4552433732313a206f776e657220717565727920666f72206e6f6e657869737460008201527f656e7420746f6b656e0000000000000000000000000000000000000000000000602082015250565b7f4552433732313a206d696e7420746f20746865207a65726f2061646472657373600082015250565b7f4552433732313a20617070726f76656420717565727920666f72206e6f6e657860008201527f697374656e7420746f6b656e0000000000000000000000000000000000000000602082015250565b7f4f776e61626c653a2063616c6c6572206973206e6f7420746865206f776e6572600082015250565b7f4552433732313a207472616e73666572206f6620746f6b656e2074686174206960008201527f73206e6f74206f776e0000000000000000000000000000000000000000000000602082015250565b7f4552433732314d657461646174613a2055524920717565727920666f72206e6f60008201527f6e6578697374656e7420746f6b656e0000000000000000000000000000000000602082015250565b7f4552433732313a20617070726f76616c20746f2063757272656e74206f776e6560008201527f7200000000000000000000000000000000000000000000000000000000000000602082015250565b7f4552433732313a207472616e736665722063616c6c6572206973206e6f74206f60008201527f776e6572206e6f7220617070726f766564000000000000000000000000000000602082015250565b61321f81612b51565b811461322a57600080fd5b50565b61323681612b63565b811461324157600080fd5b50565b61324d81612b6f565b811461325857600080fd5b50565b61326481612bbb565b811461326f57600080fd5b50565b61327b81612bc5565b811461328657600080fd5b5056fea264697066735822122038b07c395a06592b9c9b1367f99be17442b7f9d6bc70569fb197ebd5a0cabd5f64736f6c63430008040033",
  "immutableReferences": {},
  "source": "pragma solidity 0.8.4;\r\n\r\nimport \"../node_modules/@openzeppelin/contracts/token/ERC721/ERC721.sol\"; //token framework\r\nimport \"../node_modules/@openzeppelin/contracts/access/Ownable.sol\"; //management of permissions\r\n\r\ncontract Token is ERC721, Ownable {\r\n    struct Enjimon {\r\n        string enjimonName;\r\n        uint8 damage; //0-255\r\n        uint8 magic; \r\n        uint256 endurance;\r\n        uint8 level;\r\n        uint256 lastMeal;\r\n        uint256 lastTrained;\r\n    }\r\n\r\n    uint nextId = 0;\r\n    uint fTeen = 900; //rough interval of 15 mins\r\n\r\n    mapping(uint256 => Enjimon) private _tokenDetails;\r\n\r\n    constructor(string memory name, string memory symbol) ERC721(name, symbol){}\r\n\r\n    function mint(string memory enjimonName, uint8 damage, uint8 magic, uint endurance, uint8 level) public onlyOwner {\r\n\r\n        _tokenDetails[nextId] = Enjimon(enjimonName, damage, magic, endurance, level, block.timestamp, block.timestamp);\r\n        \r\n        _safeMint(msg.sender, nextId);\r\n        \r\n        nextId++;\r\n   \r\n    }\r\n\r\n    function feed(uint256 tokenId) public {\r\n        Enjimon storage enjimon =_tokenDetails[tokenId]; \r\n        \r\n        require(enjimon.lastMeal + enjimon.endurance > block.timestamp);\r\n        enjimon.lastMeal = block.timestamp;\r\n    }\r\n\r\n    \r\n   function train(uint256 tokenId) public {\r\n        Enjimon storage enjimon =_tokenDetails[tokenId];\r\n\r\n        require(block.timestamp > enjimon.lastTrained + fTeen);\r\n        enjimon.lastTrained = block.timestamp;\r\n        enjimon.level+=1;\r\n\r\n    }\r\n \r\n function getTokenDetails(uint tokenId) public view returns(Enjimon memory){\r\n        return _tokenDetails[tokenId];\r\n }\r\n\r\n    //requires enjimon to be alive or they can never transfer the token\r\n    function _beforeTokenTransfer(address from, address to, uint256 tokenId) internal override {\r\n        Enjimon storage enjimon =_tokenDetails[tokenId];\r\n        \r\n        require(enjimon.lastMeal + enjimon.endurance > block.timestamp); //must be alive\r\n    }\r\n\r\n\r\n}\r\n",
  "sourcePath": "E:/Web3 Games/NFT-GAMES/contracts/token.sol",
  "compiler": {
    "name": "solc",
    "version": "0.8.4+commit.c7e474f2.Emscripten.clang"
  },
  "schemaVersion": "3.3.4",
  "updatedAt": "2021-08-05T00:56:24.199Z",
  "networkType": "ethereum",
  "devdoc": {
    "kind": "dev",
    "methods": {
      "approve(address,uint256)": {
        "details": "See {IERC721-approve}."
      },
      "balanceOf(address)": {
        "details": "See {IERC721-balanceOf}."
      },
      "getApproved(uint256)": {
        "details": "See {IERC721-getApproved}."
      },
      "isApprovedForAll(address,address)": {
        "details": "See {IERC721-isApprovedForAll}."
      },
      "name()": {
        "details": "See {IERC721Metadata-name}."
      },
      "owner()": {
        "details": "Returns the address of the current owner."
      },
      "ownerOf(uint256)": {
        "details": "See {IERC721-ownerOf}."
      },
      "renounceOwnership()": {
        "details": "Leaves the contract without owner. It will not be possible to call `onlyOwner` functions anymore. Can only be called by the current owner. NOTE: Renouncing ownership will leave the contract without an owner, thereby removing any functionality that is only available to the owner."
      },
      "safeTransferFrom(address,address,uint256)": {
        "details": "See {IERC721-safeTransferFrom}."
      },
      "safeTransferFrom(address,address,uint256,bytes)": {
        "details": "See {IERC721-safeTransferFrom}."
      },
      "setApprovalForAll(address,bool)": {
        "details": "See {IERC721-setApprovalForAll}."
      },
      "supportsInterface(bytes4)": {
        "details": "See {IERC165-supportsInterface}."
      },
      "symbol()": {
        "details": "See {IERC721Metadata-symbol}."
      },
      "tokenURI(uint256)": {
        "details": "See {IERC721Metadata-tokenURI}."
      },
      "transferFrom(address,address,uint256)": {
        "details": "See {IERC721-transferFrom}."
      },
      "transferOwnership(address)": {
        "details": "Transfers ownership of the contract to a new account (`newOwner`). Can only be called by the current owner."
      }
    },
    "version": 1
  },
  "userdoc": {
    "kind": "user",
    "methods": {},
    "version": 1
  }
}