{
  "contractName": "Token",
  "abi": [
    {
      "inputs": [
        {
          "internalType": "string",
          "name": "name",
          "type": "string"
        },
        {
          "internalType": "string",
          "name": "symbol",
          "type": "string"
        }
      ],
      "stateMutability": "nonpayable",
      "type": "constructor"
    },
    {
      "anonymous": false,
      "inputs": [
        {
          "indexed": true,
          "internalType": "address",
          "name": "owner",
          "type": "address"
        },
        {
          "indexed": true,
          "internalType": "address",
          "name": "approved",
          "type": "address"
        },
        {
          "indexed": true,
          "internalType": "uint256",
          "name": "tokenId",
          "type": "uint256"
        }
      ],
      "name": "Approval",
      "type": "event"
    },
    {
      "anonymous": false,
      "inputs": [
        {
          "indexed": true,
          "internalType": "address",
          "name": "owner",
          "type": "address"
        },
        {
          "indexed": true,
          "internalType": "address",
          "name": "operator",
          "type": "address"
        },
        {
          "indexed": false,
          "internalType": "bool",
          "name": "approved",
          "type": "bool"
        }
      ],
      "name": "ApprovalForAll",
      "type": "event"
    },
    {
      "anonymous": false,
      "inputs": [
        {
          "indexed": true,
          "internalType": "address",
          "name": "previousOwner",
          "type": "address"
        },
        {
          "indexed": true,
          "internalType": "address",
          "name": "newOwner",
          "type": "address"
        }
      ],
      "name": "OwnershipTransferred",
      "type": "event"
    },
    {
      "anonymous": false,
      "inputs": [
        {
          "indexed": true,
          "internalType": "address",
          "name": "from",
          "type": "address"
        },
        {
          "indexed": true,
          "internalType": "address",
          "name": "to",
          "type": "address"
        },
        {
          "indexed": true,
          "internalType": "uint256",
          "name": "tokenId",
          "type": "uint256"
        }
      ],
      "name": "Transfer",
      "type": "event"
    },
    {
      "inputs": [
        {
          "internalType": "address",
          "name": "to",
          "type": "address"
        },
        {
          "internalType": "uint256",
          "name": "tokenId",
          "type": "uint256"
        }
      ],
      "name": "approve",
      "outputs": [],
      "stateMutability": "nonpayable",
      "type": "function"
    },
    {
      "inputs": [
        {
          "internalType": "address",
          "name": "owner",
          "type": "address"
        }
      ],
      "name": "balanceOf",
      "outputs": [
        {
          "internalType": "uint256",
          "name": "",
          "type": "uint256"
        }
      ],
      "stateMutability": "view",
      "type": "function"
    },
    {
      "inputs": [
        {
          "internalType": "uint256",
          "name": "tokenId",
          "type": "uint256"
        }
      ],
      "name": "getApproved",
      "outputs": [
        {
          "internalType": "address",
          "name": "",
          "type": "address"
        }
      ],
      "stateMutability": "view",
      "type": "function"
    },
    {
      "inputs": [
        {
          "internalType": "address",
          "name": "owner",
          "type": "address"
        },
        {
          "internalType": "address",
          "name": "operator",
          "type": "address"
        }
      ],
      "name": "isApprovedForAll",
      "outputs": [
        {
          "internalType": "bool",
          "name": "",
          "type": "bool"
        }
      ],
      "stateMutability": "view",
      "type": "function"
    },
    {
      "inputs": [],
      "name": "name",
      "outputs": [
        {
          "internalType": "string",
          "name": "",
          "type": "string"
        }
      ],
      "stateMutability": "view",
      "type": "function"
    },
    {
      "inputs": [],
      "name": "owner",
      "outputs": [
        {
          "internalType": "address",
          "name": "",
          "type": "address"
        }
      ],
      "stateMutability": "view",
      "type": "function"
    },
    {
      "inputs": [
        {
          "internalType": "uint256",
          "name": "tokenId",
          "type": "uint256"
        }
      ],
      "name": "ownerOf",
      "outputs": [
        {
          "internalType": "address",
          "name": "",
          "type": "address"
        }
      ],
      "stateMutability": "view",
      "type": "function"
    },
    {
      "inputs": [],
      "name": "renounceOwnership",
      "outputs": [],
      "stateMutability": "nonpayable",
      "type": "function"
    },
    {
      "inputs": [
        {
          "internalType": "address",
          "name": "from",
          "type": "address"
        },
        {
          "internalType": "address",
          "name": "to",
          "type": "address"
        },
        {
          "internalType": "uint256",
          "name": "tokenId",
          "type": "uint256"
        }
      ],
      "name": "safeTransferFrom",
      "outputs": [],
      "stateMutability": "nonpayable",
      "type": "function"
    },
    {
      "inputs": [
        {
          "internalType": "address",
          "name": "from",
          "type": "address"
        },
        {
          "internalType": "address",
          "name": "to",
          "type": "address"
        },
        {
          "internalType": "uint256",
          "name": "tokenId",
          "type": "uint256"
        },
        {
          "internalType": "bytes",
          "name": "_data",
          "type": "bytes"
        }
      ],
      "name": "safeTransferFrom",
      "outputs": [],
      "stateMutability": "nonpayable",
      "type": "function"
    },
    {
      "inputs": [
        {
          "internalType": "address",
          "name": "operator",
          "type": "address"
        },
        {
          "internalType": "bool",
          "name": "approved",
          "type": "bool"
        }
      ],
      "name": "setApprovalForAll",
      "outputs": [],
      "stateMutability": "nonpayable",
      "type": "function"
    },
    {
      "inputs": [
        {
          "internalType": "bytes4",
          "name": "interfaceId",
          "type": "bytes4"
        }
      ],
      "name": "supportsInterface",
      "outputs": [
        {
          "internalType": "bool",
          "name": "",
          "type": "bool"
        }
      ],
      "stateMutability": "view",
      "type": "function"
    },
    {
      "inputs": [],
      "name": "symbol",
      "outputs": [
        {
          "internalType": "string",
          "name": "",
          "type": "string"
        }
      ],
      "stateMutability": "view",
      "type": "function"
    },
    {
      "inputs": [
        {
          "internalType": "uint256",
          "name": "tokenId",
          "type": "uint256"
        }
      ],
      "name": "tokenURI",
      "outputs": [
        {
          "internalType": "string",
          "name": "",
          "type": "string"
        }
      ],
      "stateMutability": "view",
      "type": "function"
    },
    {
      "inputs": [
        {
          "internalType": "address",
          "name": "from",
          "type": "address"
        },
        {
          "internalType": "address",
          "name": "to",
          "type": "address"
        },
        {
          "internalType": "uint256",
          "name": "tokenId",
          "type": "uint256"
        }
      ],
      "name": "transferFrom",
      "outputs": [],
      "stateMutability": "nonpayable",
      "type": "function"
    },
    {
      "inputs": [
        {
          "internalType": "address",
          "name": "newOwner",
          "type": "address"
        }
      ],
      "name": "transferOwnership",
      "outputs": [],
      "stateMutability": "nonpayable",
      "type": "function"
    },
    {
      "inputs": [
        {
          "internalType": "uint8",
          "name": "damage",
          "type": "uint8"
        },
        {
          "internalType": "uint8",
          "name": "magic",
          "type": "uint8"
        },
        {
          "internalType": "uint256",
          "name": "endurance",
          "type": "uint256"
        },
        {
          "internalType": "uint8",
          "name": "level",
          "type": "uint8"
        }
      ],
      "name": "mint",
      "outputs": [],
      "stateMutability": "nonpayable",
      "type": "function"
    },
    {
      "inputs": [
        {
          "internalType": "uint256",
          "name": "tokenId",
          "type": "uint256"
        }
      ],
      "name": "feed",
      "outputs": [],
      "stateMutability": "nonpayable",
      "type": "function"
    },
    {
      "inputs": [
        {
          "internalType": "uint256",
          "name": "tokenId",
          "type": "uint256"
        }
      ],
      "name": "train",
      "outputs": [],
      "stateMutability": "nonpayable",
      "type": "function"
    }
  ],
  "bytecode": "0x608060405260006007556103846008553480156200001c57600080fd5b50604051620032d8380380620032d8833981810160405281019062000042919062000290565b818181600090805190602001906200005c9291906200016e565b508060019080519060200190620000759291906200016e565b505050620000986200008c620000a060201b60201c565b620000a860201b60201c565b505062000473565b600033905090565b6000600660009054906101000a900473ffffffffffffffffffffffffffffffffffffffff16905081600660006101000a81548173ffffffffffffffffffffffffffffffffffffffff021916908373ffffffffffffffffffffffffffffffffffffffff1602179055508173ffffffffffffffffffffffffffffffffffffffff168173ffffffffffffffffffffffffffffffffffffffff167f8be0079c531659141344cd1fd0a4f28419497f9722a3daafe3b4186f6b6457e060405160405180910390a35050565b8280546200017c9062000398565b90600052602060002090601f016020900481019282620001a05760008555620001ec565b82601f10620001bb57805160ff1916838001178555620001ec565b82800160010185558215620001ec579182015b82811115620001eb578251825591602001919060010190620001ce565b5b509050620001fb9190620001ff565b5090565b5b808211156200021a57600081600090555060010162000200565b5090565b6000620002356200022f846200032c565b62000303565b9050828152602081018484840111156200024e57600080fd5b6200025b84828562000362565b509392505050565b600082601f8301126200027557600080fd5b8151620002878482602086016200021e565b91505092915050565b60008060408385031215620002a457600080fd5b600083015167ffffffffffffffff811115620002bf57600080fd5b620002cd8582860162000263565b925050602083015167ffffffffffffffff811115620002eb57600080fd5b620002f98582860162000263565b9150509250929050565b60006200030f62000322565b90506200031d8282620003ce565b919050565b6000604051905090565b600067ffffffffffffffff8211156200034a576200034962000433565b5b620003558262000462565b9050602081019050919050565b60005b838110156200038257808201518184015260208101905062000365565b8381111562000392576000848401525b50505050565b60006002820490506001821680620003b157607f821691505b60208210811415620003c857620003c762000404565b5b50919050565b620003d98262000462565b810181811067ffffffffffffffff82111715620003fb57620003fa62000433565b5b80604052505050565b7f4e487b7100000000000000000000000000000000000000000000000000000000600052602260045260246000fd5b7f4e487b7100000000000000000000000000000000000000000000000000000000600052604160045260246000fd5b6000601f19601f8301169050919050565b612e5580620004836000396000f3fe608060405234801561001057600080fd5b50600436106101215760003560e01c8063715018a6116100ad578063c87b56dd11610071578063c87b56dd146102f2578063e985e9c514610322578063f2fde38b14610352578063f59dfdfb1461036e578063f6752d801461038a57610121565b8063715018a6146102745780638da5cb5b1461027e57806395d89b411461029c578063a22cb465146102ba578063b88d4fde146102d657610121565b806323b872dd116100f457806323b872dd146101c0578063368004ed146101dc57806342842e0e146101f85780636352211e1461021457806370a082311461024457610121565b806301ffc9a71461012657806306fdde0314610156578063081812fc14610174578063095ea7b3146101a4575b600080fd5b610140600480360381019061013b9190611e9b565b6103a6565b60405161014d9190612304565b60405180910390f35b61015e610488565b60405161016b919061231f565b60405180910390f35b61018e60048036038101906101899190611eed565b61051a565b60405161019b919061229d565b60405180910390f35b6101be60048036038101906101b99190611e5f565b61059f565b005b6101da60048036038101906101d59190611d59565b6106b7565b005b6101f660048036038101906101f19190611eed565b610717565b005b610212600480360381019061020d9190611d59565b61078a565b005b61022e60048036038101906102299190611eed565b6107aa565b60405161023b919061229d565b60405180910390f35b61025e60048036038101906102599190611cf4565b61085c565b60405161026b9190612541565b60405180910390f35b61027c610914565b005b61028661099c565b604051610293919061229d565b60405180910390f35b6102a46109c6565b6040516102b1919061231f565b60405180910390f35b6102d460048036038101906102cf9190611e23565b610a58565b005b6102f060048036038101906102eb9190611da8565b610bd9565b005b61030c60048036038101906103079190611eed565b610c3b565b604051610319919061231f565b60405180910390f35b61033c60048036038101906103379190611d1d565b610ce2565b6040516103499190612304565b60405180910390f35b61036c60048036038101906103679190611cf4565b610d76565b005b61038860048036038101906103839190611eed565b610e6e565b005b6103a4600480360381019061039f9190611f16565b610eb3565b005b60007f80ac58cd000000000000000000000000000000000000000000000000000000007bffffffffffffffffffffffffffffffffffffffffffffffffffffffff1916827bffffffffffffffffffffffffffffffffffffffffffffffffffffffff1916148061047157507f5b5e139f000000000000000000000000000000000000000000000000000000007bffffffffffffffffffffffffffffffffffffffffffffffffffffffff1916827bffffffffffffffffffffffffffffffffffffffffffffffffffffffff1916145b80610481575061048082611028565b5b9050919050565b606060008054610497906127aa565b80601f01602080910402602001604051908101604052809291908181526020018280546104c3906127aa565b80156105105780601f106104e557610100808354040283529160200191610510565b820191906000526020600020905b8154815290600101906020018083116104f357829003601f168201915b5050505050905090565b600061052582611092565b610564576040517f08c379a000000000000000000000000000000000000000000000000000000000815260040161055b90612481565b60405180910390fd5b6004600083815260200190815260200160002060009054906101000a900473ffffffffffffffffffffffffffffffffffffffff169050919050565b60006105aa826107aa565b90508073ffffffffffffffffffffffffffffffffffffffff168373ffffffffffffffffffffffffffffffffffffffff16141561061b576040517f08c379a000000000000000000000000000000000000000000000000000000000815260040161061290612501565b60405180910390fd5b8073ffffffffffffffffffffffffffffffffffffffff1661063a6110fe565b73ffffffffffffffffffffffffffffffffffffffff1614806106695750610668816106636110fe565b610ce2565b5b6106a8576040517f08c379a000000000000000000000000000000000000000000000000000000000815260040161069f90612401565b60405180910390fd5b6106b28383611106565b505050565b6106c86106c26110fe565b826111bf565b610707576040517f08c379a00000000000000000000000000000000000000000000000000000000081526004016106fe90612521565b60405180910390fd5b61071283838361129d565b505050565b60006009600060075481526020019081526020016000209050600854816004015461074291906125f5565b421161074d57600080fd5b60018160020160008282829054906101000a900460ff1661076e919061264b565b92506101000a81548160ff021916908360ff1602179055505050565b6107a583838360405180602001604052806000815250610bd9565b505050565b6000806002600084815260200190815260200160002060009054906101000a900473ffffffffffffffffffffffffffffffffffffffff169050600073ffffffffffffffffffffffffffffffffffffffff168173ffffffffffffffffffffffffffffffffffffffff161415610853576040517f08c379a000000000000000000000000000000000000000000000000000000000815260040161084a90612441565b60405180910390fd5b80915050919050565b60008073ffffffffffffffffffffffffffffffffffffffff168273ffffffffffffffffffffffffffffffffffffffff1614156108cd576040517f08c379a00000000000000000000000000000000000000000000000000000000081526004016108c490612421565b60405180910390fd5b600360008373ffffffffffffffffffffffffffffffffffffffff1673ffffffffffffffffffffffffffffffffffffffff168152602001908152602001600020549050919050565b61091c6110fe565b73ffffffffffffffffffffffffffffffffffffffff1661093a61099c565b73ffffffffffffffffffffffffffffffffffffffff1614610990576040517f08c379a0000000000000000000000000000000000000000000000000000000008152600401610987906124a1565b60405180910390fd5b61099a60006114f9565b565b6000600660009054906101000a900473ffffffffffffffffffffffffffffffffffffffff16905090565b6060600180546109d5906127aa565b80601f0160208091040260200160405190810160405280929190818152602001828054610a01906127aa565b8015610a4e5780601f10610a2357610100808354040283529160200191610a4e565b820191906000526020600020905b815481529060010190602001808311610a3157829003601f168201915b5050505050905090565b610a606110fe565b73ffffffffffffffffffffffffffffffffffffffff168273ffffffffffffffffffffffffffffffffffffffff161415610ace576040517f08c379a0000000000000000000000000000000000000000000000000000000008152600401610ac5906123c1565b60405180910390fd5b8060056000610adb6110fe565b73ffffffffffffffffffffffffffffffffffffffff1673ffffffffffffffffffffffffffffffffffffffff16815260200190815260200160002060008473ffffffffffffffffffffffffffffffffffffffff1673ffffffffffffffffffffffffffffffffffffffff16815260200190815260200160002060006101000a81548160ff0219169083151502179055508173ffffffffffffffffffffffffffffffffffffffff16610b886110fe565b73ffffffffffffffffffffffffffffffffffffffff167f17307eab39ab6107e8899845ad3d59bd9653f200f220920489ca2b5937696c3183604051610bcd9190612304565b60405180910390a35050565b610bea610be46110fe565b836111bf565b610c29576040517f08c379a0000000000000000000000000000000000000000000000000000000008152600401610c2090612521565b60405180910390fd5b610c35848484846115bf565b50505050565b6060610c4682611092565b610c85576040517f08c379a0000000000000000000000000000000000000000000000000000000008152600401610c7c906124e1565b60405180910390fd5b6000610c8f61161b565b90506000815111610caf5760405180602001604052806000815250610cda565b80610cb984611632565b604051602001610cca929190612279565b6040516020818303038152906040525b915050919050565b6000600560008473ffffffffffffffffffffffffffffffffffffffff1673ffffffffffffffffffffffffffffffffffffffff16815260200190815260200160002060008373ffffffffffffffffffffffffffffffffffffffff1673ffffffffffffffffffffffffffffffffffffffff16815260200190815260200160002060009054906101000a900460ff16905092915050565b610d7e6110fe565b73ffffffffffffffffffffffffffffffffffffffff16610d9c61099c565b73ffffffffffffffffffffffffffffffffffffffff1614610df2576040517f08c379a0000000000000000000000000000000000000000000000000000000008152600401610de9906124a1565b60405180910390fd5b600073ffffffffffffffffffffffffffffffffffffffff168173ffffffffffffffffffffffffffffffffffffffff161415610e62576040517f08c379a0000000000000000000000000000000000000000000000000000000008152600401610e5990612361565b60405180910390fd5b610e6b816114f9565b50565b600060096000600754815260200190815260200160002090504281600101548260030154610e9c91906125f5565b11610ea657600080fd5b4281600301819055505050565b610ebb6110fe565b73ffffffffffffffffffffffffffffffffffffffff16610ed961099c565b73ffffffffffffffffffffffffffffffffffffffff1614610f2f576040517f08c379a0000000000000000000000000000000000000000000000000000000008152600401610f26906124a1565b60405180910390fd5b6040518060c001604052808560ff1681526020018460ff1681526020018381526020018260ff1681526020014281526020014281525060096000600754815260200190815260200160002060008201518160000160006101000a81548160ff021916908360ff16021790555060208201518160000160016101000a81548160ff021916908360ff1602179055506040820151816001015560608201518160020160006101000a81548160ff021916908360ff1602179055506080820151816003015560a0820151816004015590505061100a336007546117df565b6007600081548092919061101d9061280d565b919050555050505050565b60007f01ffc9a7000000000000000000000000000000000000000000000000000000007bffffffffffffffffffffffffffffffffffffffffffffffffffffffff1916827bffffffffffffffffffffffffffffffffffffffffffffffffffffffff1916149050919050565b60008073ffffffffffffffffffffffffffffffffffffffff166002600084815260200190815260200160002060009054906101000a900473ffffffffffffffffffffffffffffffffffffffff1673ffffffffffffffffffffffffffffffffffffffff1614159050919050565b600033905090565b816004600083815260200190815260200160002060006101000a81548173ffffffffffffffffffffffffffffffffffffffff021916908373ffffffffffffffffffffffffffffffffffffffff160217905550808273ffffffffffffffffffffffffffffffffffffffff16611179836107aa565b73ffffffffffffffffffffffffffffffffffffffff167f8c5be1e5ebec7d5bd14f71427d1e84f3dd0314c0f7b2291e5b200ac8c7c3b92560405160405180910390a45050565b60006111ca82611092565b611209576040517f08c379a0000000000000000000000000000000000000000000000000000000008152600401611200906123e1565b60405180910390fd5b6000611214836107aa565b90508073ffffffffffffffffffffffffffffffffffffffff168473ffffffffffffffffffffffffffffffffffffffff16148061128357508373ffffffffffffffffffffffffffffffffffffffff1661126b8461051a565b73ffffffffffffffffffffffffffffffffffffffff16145b8061129457506112938185610ce2565b5b91505092915050565b8273ffffffffffffffffffffffffffffffffffffffff166112bd826107aa565b73ffffffffffffffffffffffffffffffffffffffff1614611313576040517f08c379a000000000000000000000000000000000000000000000000000000000815260040161130a906124c1565b60405180910390fd5b600073ffffffffffffffffffffffffffffffffffffffff168273ffffffffffffffffffffffffffffffffffffffff161415611383576040517f08c379a000000000000000000000000000000000000000000000000000000000815260040161137a906123a1565b60405180910390fd5b61138e8383836117fd565b611399600082611106565b6001600360008573ffffffffffffffffffffffffffffffffffffffff1673ffffffffffffffffffffffffffffffffffffffff16815260200190815260200160002060008282546113e991906126b3565b925050819055506001600360008473ffffffffffffffffffffffffffffffffffffffff1673ffffffffffffffffffffffffffffffffffffffff168152602001908152602001600020600082825461144091906125f5565b92505081905550816002600083815260200190815260200160002060006101000a81548173ffffffffffffffffffffffffffffffffffffffff021916908373ffffffffffffffffffffffffffffffffffffffff160217905550808273ffffffffffffffffffffffffffffffffffffffff168473ffffffffffffffffffffffffffffffffffffffff167fddf252ad1be2c89b69c2b068fc378daa952ba7f163c4a11628f55a4df523b3ef60405160405180910390a4505050565b6000600660009054906101000a900473ffffffffffffffffffffffffffffffffffffffff16905081600660006101000a81548173ffffffffffffffffffffffffffffffffffffffff021916908373ffffffffffffffffffffffffffffffffffffffff1602179055508173ffffffffffffffffffffffffffffffffffffffff168173ffffffffffffffffffffffffffffffffffffffff167f8be0079c531659141344cd1fd0a4f28419497f9722a3daafe3b4186f6b6457e060405160405180910390a35050565b6115ca84848461129d565b6115d68484848461183b565b611615576040517f08c379a000000000000000000000000000000000000000000000000000000000815260040161160c90612341565b60405180910390fd5b50505050565b606060405180602001604052806000815250905090565b6060600082141561167a576040518060400160405280600181526020017f300000000000000000000000000000000000000000000000000000000000000081525090506117da565b600082905060005b600082146116ac5780806116959061280d565b915050600a826116a59190612682565b9150611682565b60008167ffffffffffffffff8111156116ee577f4e487b7100000000000000000000000000000000000000000000000000000000600052604160045260246000fd5b6040519080825280601f01601f1916602001820160405280156117205781602001600182028036833780820191505090505b5090505b600085146117d35760018261173991906126b3565b9150600a856117489190612856565b603061175491906125f5565b60f81b818381518110611790577f4e487b7100000000000000000000000000000000000000000000000000000000600052603260045260246000fd5b60200101907effffffffffffffffffffffffffffffffffffffffffffffffffffffffffffff1916908160001a905350600a856117cc9190612682565b9450611724565b8093505050505b919050565b6117f98282604051806020016040528060008152506119d2565b5050565b60006009600060075481526020019081526020016000209050428160010154826003015461182b91906125f5565b1161183557600080fd5b50505050565b600061185c8473ffffffffffffffffffffffffffffffffffffffff16611a2d565b156119c5578373ffffffffffffffffffffffffffffffffffffffff1663150b7a026118856110fe565b8786866040518563ffffffff1660e01b81526004016118a794939291906122b8565b602060405180830381600087803b1580156118c157600080fd5b505af19250505080156118f257506040513d601f19601f820116820180604052508101906118ef9190611ec4565b60015b611975573d8060008114611922576040519150601f19603f3d011682016040523d82523d6000602084013e611927565b606091505b5060008151141561196d576040517f08c379a000000000000000000000000000000000000000000000000000000000815260040161196490612341565b60405180910390fd5b805181602001fd5b63150b7a0260e01b7bffffffffffffffffffffffffffffffffffffffffffffffffffffffff1916817bffffffffffffffffffffffffffffffffffffffffffffffffffffffff1916149150506119ca565b600190505b949350505050565b6119dc8383611a40565b6119e9600084848461183b565b611a28576040517f08c379a0000000000000000000000000000000000000000000000000000000008152600401611a1f90612341565b60405180910390fd5b505050565b600080823b905060008111915050919050565b600073ffffffffffffffffffffffffffffffffffffffff168273ffffffffffffffffffffffffffffffffffffffff161415611ab0576040517f08c379a0000000000000000000000000000000000000000000000000000000008152600401611aa790612461565b60405180910390fd5b611ab981611092565b15611af9576040517f08c379a0000000000000000000000000000000000000000000000000000000008152600401611af090612381565b60405180910390fd5b611b05600083836117fd565b6001600360008473ffffffffffffffffffffffffffffffffffffffff1673ffffffffffffffffffffffffffffffffffffffff1681526020019081526020016000206000828254611b5591906125f5565b92505081905550816002600083815260200190815260200160002060006101000a81548173ffffffffffffffffffffffffffffffffffffffff021916908373ffffffffffffffffffffffffffffffffffffffff160217905550808273ffffffffffffffffffffffffffffffffffffffff16600073ffffffffffffffffffffffffffffffffffffffff167fddf252ad1be2c89b69c2b068fc378daa952ba7f163c4a11628f55a4df523b3ef60405160405180910390a45050565b6000611c21611c1c84612581565b61255c565b905082815260208101848484011115611c3957600080fd5b611c44848285612768565b509392505050565b600081359050611c5b81612dac565b92915050565b600081359050611c7081612dc3565b92915050565b600081359050611c8581612dda565b92915050565b600081519050611c9a81612dda565b92915050565b600082601f830112611cb157600080fd5b8135611cc1848260208601611c0e565b91505092915050565b600081359050611cd981612df1565b92915050565b600081359050611cee81612e08565b92915050565b600060208284031215611d0657600080fd5b6000611d1484828501611c4c565b91505092915050565b60008060408385031215611d3057600080fd5b6000611d3e85828601611c4c565b9250506020611d4f85828601611c4c565b9150509250929050565b600080600060608486031215611d6e57600080fd5b6000611d7c86828701611c4c565b9350506020611d8d86828701611c4c565b9250506040611d9e86828701611cca565b9150509250925092565b60008060008060808587031215611dbe57600080fd5b6000611dcc87828801611c4c565b9450506020611ddd87828801611c4c565b9350506040611dee87828801611cca565b925050606085013567ffffffffffffffff811115611e0b57600080fd5b611e1787828801611ca0565b91505092959194509250565b60008060408385031215611e3657600080fd5b6000611e4485828601611c4c565b9250506020611e5585828601611c61565b9150509250929050565b60008060408385031215611e7257600080fd5b6000611e8085828601611c4c565b9250506020611e9185828601611cca565b9150509250929050565b600060208284031215611ead57600080fd5b6000611ebb84828501611c76565b91505092915050565b600060208284031215611ed657600080fd5b6000611ee484828501611c8b565b91505092915050565b600060208284031215611eff57600080fd5b6000611f0d84828501611cca565b91505092915050565b60008060008060808587031215611f2c57600080fd5b6000611f3a87828801611cdf565b9450506020611f4b87828801611cdf565b9350506040611f5c87828801611cca565b9250506060611f6d87828801611cdf565b91505092959194509250565b611f82816126e7565b82525050565b611f91816126f9565b82525050565b6000611fa2826125b2565b611fac81856125c8565b9350611fbc818560208601612777565b611fc581612943565b840191505092915050565b6000611fdb826125bd565b611fe581856125d9565b9350611ff5818560208601612777565b611ffe81612943565b840191505092915050565b6000612014826125bd565b61201e81856125ea565b935061202e818560208601612777565b80840191505092915050565b60006120476032836125d9565b915061205282612954565b604082019050919050565b600061206a6026836125d9565b9150612075826129a3565b604082019050919050565b600061208d601c836125d9565b9150612098826129f2565b602082019050919050565b60006120b06024836125d9565b91506120bb82612a1b565b604082019050919050565b60006120d36019836125d9565b91506120de82612a6a565b602082019050919050565b60006120f6602c836125d9565b915061210182612a93565b604082019050919050565b60006121196038836125d9565b915061212482612ae2565b604082019050919050565b600061213c602a836125d9565b915061214782612b31565b604082019050919050565b600061215f6029836125d9565b915061216a82612b80565b604082019050919050565b60006121826020836125d9565b915061218d82612bcf565b602082019050919050565b60006121a5602c836125d9565b91506121b082612bf8565b604082019050919050565b60006121c86020836125d9565b91506121d382612c47565b602082019050919050565b60006121eb6029836125d9565b91506121f682612c70565b604082019050919050565b600061220e602f836125d9565b915061221982612cbf565b604082019050919050565b60006122316021836125d9565b915061223c82612d0e565b604082019050919050565b60006122546031836125d9565b915061225f82612d5d565b604082019050919050565b61227381612751565b82525050565b60006122858285612009565b91506122918284612009565b91508190509392505050565b60006020820190506122b26000830184611f79565b92915050565b60006080820190506122cd6000830187611f79565b6122da6020830186611f79565b6122e7604083018561226a565b81810360608301526122f98184611f97565b905095945050505050565b60006020820190506123196000830184611f88565b92915050565b600060208201905081810360008301526123398184611fd0565b905092915050565b6000602082019050818103600083015261235a8161203a565b9050919050565b6000602082019050818103600083015261237a8161205d565b9050919050565b6000602082019050818103600083015261239a81612080565b9050919050565b600060208201905081810360008301526123ba816120a3565b9050919050565b600060208201905081810360008301526123da816120c6565b9050919050565b600060208201905081810360008301526123fa816120e9565b9050919050565b6000602082019050818103600083015261241a8161210c565b9050919050565b6000602082019050818103600083015261243a8161212f565b9050919050565b6000602082019050818103600083015261245a81612152565b9050919050565b6000602082019050818103600083015261247a81612175565b9050919050565b6000602082019050818103600083015261249a81612198565b9050919050565b600060208201905081810360008301526124ba816121bb565b9050919050565b600060208201905081810360008301526124da816121de565b9050919050565b600060208201905081810360008301526124fa81612201565b9050919050565b6000602082019050818103600083015261251a81612224565b9050919050565b6000602082019050818103600083015261253a81612247565b9050919050565b6000602082019050612556600083018461226a565b92915050565b6000612566612577565b905061257282826127dc565b919050565b6000604051905090565b600067ffffffffffffffff82111561259c5761259b612914565b5b6125a582612943565b9050602081019050919050565b600081519050919050565b600081519050919050565b600082825260208201905092915050565b600082825260208201905092915050565b600081905092915050565b600061260082612751565b915061260b83612751565b9250827fffffffffffffffffffffffffffffffffffffffffffffffffffffffffffffffff038211156126405761263f612887565b5b828201905092915050565b60006126568261275b565b91506126618361275b565b92508260ff0382111561267757612676612887565b5b828201905092915050565b600061268d82612751565b915061269883612751565b9250826126a8576126a76128b6565b5b828204905092915050565b60006126be82612751565b91506126c983612751565b9250828210156126dc576126db612887565b5b828203905092915050565b60006126f282612731565b9050919050565b60008115159050919050565b60007fffffffff0000000000000000000000000000000000000000000000000000000082169050919050565b600073ffffffffffffffffffffffffffffffffffffffff82169050919050565b6000819050919050565b600060ff82169050919050565b82818337600083830152505050565b60005b8381101561279557808201518184015260208101905061277a565b838111156127a4576000848401525b50505050565b600060028204905060018216806127c257607f821691505b602082108114156127d6576127d56128e5565b5b50919050565b6127e582612943565b810181811067ffffffffffffffff8211171561280457612803612914565b5b80604052505050565b600061281882612751565b91507fffffffffffffffffffffffffffffffffffffffffffffffffffffffffffffffff82141561284b5761284a612887565b5b600182019050919050565b600061286182612751565b915061286c83612751565b92508261287c5761287b6128b6565b5b828206905092915050565b7f4e487b7100000000000000000000000000000000000000000000000000000000600052601160045260246000fd5b7f4e487b7100000000000000000000000000000000000000000000000000000000600052601260045260246000fd5b7f4e487b7100000000000000000000000000000000000000000000000000000000600052602260045260246000fd5b7f4e487b7100000000000000000000000000000000000000000000000000000000600052604160045260246000fd5b6000601f19601f8301169050919050565b7f4552433732313a207472616e7366657220746f206e6f6e20455243373231526560008201527f63656976657220696d706c656d656e7465720000000000000000000000000000602082015250565b7f4f776e61626c653a206e6577206f776e657220697320746865207a65726f206160008201527f6464726573730000000000000000000000000000000000000000000000000000602082015250565b7f4552433732313a20746f6b656e20616c7265616479206d696e74656400000000600082015250565b7f4552433732313a207472616e7366657220746f20746865207a65726f2061646460008201527f7265737300000000000000000000000000000000000000000000000000000000602082015250565b7f4552433732313a20617070726f766520746f2063616c6c657200000000000000600082015250565b7f4552433732313a206f70657261746f7220717565727920666f72206e6f6e657860008201527f697374656e7420746f6b656e0000000000000000000000000000000000000000602082015250565b7f4552433732313a20617070726f76652063616c6c6572206973206e6f74206f7760008201527f6e6572206e6f7220617070726f76656420666f7220616c6c0000000000000000602082015250565b7f4552433732313a2062616c616e636520717565727920666f7220746865207a6560008201527f726f206164647265737300000000000000000000000000000000000000000000602082015250565b7f4552433732313a206f776e657220717565727920666f72206e6f6e657869737460008201527f656e7420746f6b656e0000000000000000000000000000000000000000000000602082015250565b7f4552433732313a206d696e7420746f20746865207a65726f2061646472657373600082015250565b7f4552433732313a20617070726f76656420717565727920666f72206e6f6e657860008201527f697374656e7420746f6b656e0000000000000000000000000000000000000000602082015250565b7f4f776e61626c653a2063616c6c6572206973206e6f7420746865206f776e6572600082015250565b7f4552433732313a207472616e73666572206f6620746f6b656e2074686174206960008201527f73206e6f74206f776e0000000000000000000000000000000000000000000000602082015250565b7f4552433732314d657461646174613a2055524920717565727920666f72206e6f60008201527f6e6578697374656e7420746f6b656e0000000000000000000000000000000000602082015250565b7f4552433732313a20617070726f76616c20746f2063757272656e74206f776e6560008201527f7200000000000000000000000000000000000000000000000000000000000000602082015250565b7f4552433732313a207472616e736665722063616c6c6572206973206e6f74206f60008201527f776e6572206e6f7220617070726f766564000000000000000000000000000000602082015250565b612db5816126e7565b8114612dc057600080fd5b50565b612dcc816126f9565b8114612dd757600080fd5b50565b612de381612705565b8114612dee57600080fd5b50565b612dfa81612751565b8114612e0557600080fd5b50565b612e118161275b565b8114612e1c57600080fd5b5056fea2646970667358221220abcaedd2d53c6168c336e3b42a5a7d44bf6ea17118d763ce44eabdb2a0aab9fa64736f6c63430008040033",
  "immutableReferences": {},
  "source": "pragma solidity 0.8.4;\r\n\r\nimport \"../node_modules/@openzeppelin/contracts/token/ERC721/ERC721.sol\"; //token framework\r\nimport \"../node_modules/@openzeppelin/contracts/access/Ownable.sol\"; //management of permissions\r\n\r\ncontract Token is ERC721, Ownable {\r\n    struct Enjimon {\r\n        uint8 damage; //0-255\r\n        uint8 magic; \r\n        uint256 endurance;\r\n        uint8 level;\r\n        uint256 lastMeal;\r\n        uint256 lastTrained;\r\n    }\r\n\r\n    uint nextId = 0;\r\n    uint fTeen = 900; //rough interval of 15 mins\r\n\r\n    mapping(uint256 => Enjimon) private _tokenDetails;\r\n\r\n    constructor(string memory name, string memory symbol) ERC721(name, symbol){}\r\n\r\n    function mint(uint8 damage, uint8 magic, uint endurance, uint8 level) public onlyOwner {\r\n\r\n        _tokenDetails[nextId] = Enjimon(damage, magic, endurance, level, block.timestamp, block.timestamp);\r\n        \r\n        _safeMint(msg.sender, nextId);\r\n        \r\n        nextId++;\r\n   \r\n    }\r\n\r\n    function feed(uint256 tokenId) public {\r\n        Enjimon storage enjimon =_tokenDetails[nextId]; \r\n        \r\n        require(enjimon.lastMeal + enjimon.endurance > block.timestamp);\r\n        enjimon.lastMeal = block.timestamp;\r\n    }\r\n\r\n    \r\n   function train(uint256 tokenId) public {\r\n        Enjimon storage enjimon =_tokenDetails[nextId];\r\n\r\n        require(block.timestamp > enjimon.lastTrained + fTeen);\r\n        enjimon.level+=1;\r\n\r\n    }\r\n \r\n\r\n    //requires enjimon to be alive or they can never transfer the token\r\n    function _beforeTokenTransfer(address from, address to, uint256 tokenId) internal override {\r\n        Enjimon storage enjimon =_tokenDetails[nextId];\r\n        \r\n        require(enjimon.lastMeal + enjimon.endurance > block.timestamp); //must be alive\r\n    }\r\n\r\n\r\n}\r\n",
  "sourcePath": "E:/Web3 Games/NFT-GAMES/contracts/token.sol",
  "compiler": {
    "name": "solc",
    "version": "0.8.4+commit.c7e474f2.Emscripten.clang"
  },
  "schemaVersion": "3.3.4",
  "updatedAt": "2021-08-04T13:26:35.813Z",
  "devdoc": {
    "kind": "dev",
    "methods": {
      "approve(address,uint256)": {
        "details": "See {IERC721-approve}."
      },
      "balanceOf(address)": {
        "details": "See {IERC721-balanceOf}."
      },
      "getApproved(uint256)": {
        "details": "See {IERC721-getApproved}."
      },
      "isApprovedForAll(address,address)": {
        "details": "See {IERC721-isApprovedForAll}."
      },
      "name()": {
        "details": "See {IERC721Metadata-name}."
      },
      "owner()": {
        "details": "Returns the address of the current owner."
      },
      "ownerOf(uint256)": {
        "details": "See {IERC721-ownerOf}."
      },
      "renounceOwnership()": {
        "details": "Leaves the contract without owner. It will not be possible to call `onlyOwner` functions anymore. Can only be called by the current owner. NOTE: Renouncing ownership will leave the contract without an owner, thereby removing any functionality that is only available to the owner."
      },
      "safeTransferFrom(address,address,uint256)": {
        "details": "See {IERC721-safeTransferFrom}."
      },
      "safeTransferFrom(address,address,uint256,bytes)": {
        "details": "See {IERC721-safeTransferFrom}."
      },
      "setApprovalForAll(address,bool)": {
        "details": "See {IERC721-setApprovalForAll}."
      },
      "supportsInterface(bytes4)": {
        "details": "See {IERC165-supportsInterface}."
      },
      "symbol()": {
        "details": "See {IERC721Metadata-symbol}."
      },
      "tokenURI(uint256)": {
        "details": "See {IERC721Metadata-tokenURI}."
      },
      "transferFrom(address,address,uint256)": {
        "details": "See {IERC721-transferFrom}."
      },
      "transferOwnership(address)": {
        "details": "Transfers ownership of the contract to a new account (`newOwner`). Can only be called by the current owner."
      }
    },
    "version": 1
  },
  "userdoc": {
    "kind": "user",
    "methods": {},
    "version": 1
  }
}