{
  "contractName": "Token",
  "abi": [
    {
      "inputs": [
        {
          "internalType": "string",
          "name": "name",
          "type": "string"
        },
        {
          "internalType": "string",
          "name": "symbol",
          "type": "string"
        }
      ],
      "stateMutability": "nonpayable",
      "type": "constructor"
    },
    {
      "anonymous": false,
      "inputs": [
        {
          "indexed": true,
          "internalType": "address",
          "name": "owner",
          "type": "address"
        },
        {
          "indexed": true,
          "internalType": "address",
          "name": "approved",
          "type": "address"
        },
        {
          "indexed": true,
          "internalType": "uint256",
          "name": "tokenId",
          "type": "uint256"
        }
      ],
      "name": "Approval",
      "type": "event"
    },
    {
      "anonymous": false,
      "inputs": [
        {
          "indexed": true,
          "internalType": "address",
          "name": "owner",
          "type": "address"
        },
        {
          "indexed": true,
          "internalType": "address",
          "name": "operator",
          "type": "address"
        },
        {
          "indexed": false,
          "internalType": "bool",
          "name": "approved",
          "type": "bool"
        }
      ],
      "name": "ApprovalForAll",
      "type": "event"
    },
    {
      "anonymous": false,
      "inputs": [
        {
          "indexed": true,
          "internalType": "address",
          "name": "previousOwner",
          "type": "address"
        },
        {
          "indexed": true,
          "internalType": "address",
          "name": "newOwner",
          "type": "address"
        }
      ],
      "name": "OwnershipTransferred",
      "type": "event"
    },
    {
      "anonymous": false,
      "inputs": [
        {
          "indexed": true,
          "internalType": "address",
          "name": "from",
          "type": "address"
        },
        {
          "indexed": true,
          "internalType": "address",
          "name": "to",
          "type": "address"
        },
        {
          "indexed": true,
          "internalType": "uint256",
          "name": "tokenId",
          "type": "uint256"
        }
      ],
      "name": "Transfer",
      "type": "event"
    },
    {
      "inputs": [
        {
          "internalType": "address",
          "name": "to",
          "type": "address"
        },
        {
          "internalType": "uint256",
          "name": "tokenId",
          "type": "uint256"
        }
      ],
      "name": "approve",
      "outputs": [],
      "stateMutability": "nonpayable",
      "type": "function"
    },
    {
      "inputs": [
        {
          "internalType": "address",
          "name": "owner",
          "type": "address"
        }
      ],
      "name": "balanceOf",
      "outputs": [
        {
          "internalType": "uint256",
          "name": "",
          "type": "uint256"
        }
      ],
      "stateMutability": "view",
      "type": "function",
      "constant": true
    },
    {
      "inputs": [
        {
          "internalType": "uint256",
          "name": "tokenId",
          "type": "uint256"
        }
      ],
      "name": "getApproved",
      "outputs": [
        {
          "internalType": "address",
          "name": "",
          "type": "address"
        }
      ],
      "stateMutability": "view",
      "type": "function",
      "constant": true
    },
    {
      "inputs": [
        {
          "internalType": "address",
          "name": "owner",
          "type": "address"
        },
        {
          "internalType": "address",
          "name": "operator",
          "type": "address"
        }
      ],
      "name": "isApprovedForAll",
      "outputs": [
        {
          "internalType": "bool",
          "name": "",
          "type": "bool"
        }
      ],
      "stateMutability": "view",
      "type": "function",
      "constant": true
    },
    {
      "inputs": [],
      "name": "name",
      "outputs": [
        {
          "internalType": "string",
          "name": "",
          "type": "string"
        }
      ],
      "stateMutability": "view",
      "type": "function",
      "constant": true
    },
    {
      "inputs": [],
      "name": "owner",
      "outputs": [
        {
          "internalType": "address",
          "name": "",
          "type": "address"
        }
      ],
      "stateMutability": "view",
      "type": "function",
      "constant": true
    },
    {
      "inputs": [
        {
          "internalType": "uint256",
          "name": "tokenId",
          "type": "uint256"
        }
      ],
      "name": "ownerOf",
      "outputs": [
        {
          "internalType": "address",
          "name": "",
          "type": "address"
        }
      ],
      "stateMutability": "view",
      "type": "function",
      "constant": true
    },
    {
      "inputs": [],
      "name": "renounceOwnership",
      "outputs": [],
      "stateMutability": "nonpayable",
      "type": "function"
    },
    {
      "inputs": [
        {
          "internalType": "address",
          "name": "from",
          "type": "address"
        },
        {
          "internalType": "address",
          "name": "to",
          "type": "address"
        },
        {
          "internalType": "uint256",
          "name": "tokenId",
          "type": "uint256"
        }
      ],
      "name": "safeTransferFrom",
      "outputs": [],
      "stateMutability": "nonpayable",
      "type": "function"
    },
    {
      "inputs": [
        {
          "internalType": "address",
          "name": "from",
          "type": "address"
        },
        {
          "internalType": "address",
          "name": "to",
          "type": "address"
        },
        {
          "internalType": "uint256",
          "name": "tokenId",
          "type": "uint256"
        },
        {
          "internalType": "bytes",
          "name": "_data",
          "type": "bytes"
        }
      ],
      "name": "safeTransferFrom",
      "outputs": [],
      "stateMutability": "nonpayable",
      "type": "function"
    },
    {
      "inputs": [
        {
          "internalType": "address",
          "name": "operator",
          "type": "address"
        },
        {
          "internalType": "bool",
          "name": "approved",
          "type": "bool"
        }
      ],
      "name": "setApprovalForAll",
      "outputs": [],
      "stateMutability": "nonpayable",
      "type": "function"
    },
    {
      "inputs": [
        {
          "internalType": "bytes4",
          "name": "interfaceId",
          "type": "bytes4"
        }
      ],
      "name": "supportsInterface",
      "outputs": [
        {
          "internalType": "bool",
          "name": "",
          "type": "bool"
        }
      ],
      "stateMutability": "view",
      "type": "function",
      "constant": true
    },
    {
      "inputs": [],
      "name": "symbol",
      "outputs": [
        {
          "internalType": "string",
          "name": "",
          "type": "string"
        }
      ],
      "stateMutability": "view",
      "type": "function",
      "constant": true
    },
    {
      "inputs": [
        {
          "internalType": "uint256",
          "name": "tokenId",
          "type": "uint256"
        }
      ],
      "name": "tokenURI",
      "outputs": [
        {
          "internalType": "string",
          "name": "",
          "type": "string"
        }
      ],
      "stateMutability": "view",
      "type": "function",
      "constant": true
    },
    {
      "inputs": [
        {
          "internalType": "address",
          "name": "from",
          "type": "address"
        },
        {
          "internalType": "address",
          "name": "to",
          "type": "address"
        },
        {
          "internalType": "uint256",
          "name": "tokenId",
          "type": "uint256"
        }
      ],
      "name": "transferFrom",
      "outputs": [],
      "stateMutability": "nonpayable",
      "type": "function"
    },
    {
      "inputs": [
        {
          "internalType": "address",
          "name": "newOwner",
          "type": "address"
        }
      ],
      "name": "transferOwnership",
      "outputs": [],
      "stateMutability": "nonpayable",
      "type": "function"
    },
    {
      "inputs": [
        {
          "internalType": "uint8",
          "name": "damage",
          "type": "uint8"
        },
        {
          "internalType": "uint8",
          "name": "magic",
          "type": "uint8"
        },
        {
          "internalType": "uint256",
          "name": "endurance",
          "type": "uint256"
        },
        {
          "internalType": "uint8",
          "name": "level",
          "type": "uint8"
        }
      ],
      "name": "mint",
      "outputs": [],
      "stateMutability": "nonpayable",
      "type": "function"
    },
    {
      "inputs": [
        {
          "internalType": "uint256",
          "name": "tokenId",
          "type": "uint256"
        }
      ],
      "name": "feed",
      "outputs": [],
      "stateMutability": "nonpayable",
      "type": "function"
    },
    {
      "inputs": [
        {
          "internalType": "uint256",
          "name": "tokenId",
          "type": "uint256"
        }
      ],
      "name": "train",
      "outputs": [],
      "stateMutability": "nonpayable",
      "type": "function"
    },
    {
      "inputs": [
        {
          "internalType": "uint256",
          "name": "tokenId",
          "type": "uint256"
        }
      ],
      "name": "getTokenDetails",
      "outputs": [
        {
          "components": [
            {
              "internalType": "uint8",
              "name": "damage",
              "type": "uint8"
            },
            {
              "internalType": "uint8",
              "name": "magic",
              "type": "uint8"
            },
            {
              "internalType": "uint256",
              "name": "endurance",
              "type": "uint256"
            },
            {
              "internalType": "uint8",
              "name": "level",
              "type": "uint8"
            },
            {
              "internalType": "uint256",
              "name": "lastMeal",
              "type": "uint256"
            },
            {
              "internalType": "uint256",
              "name": "lastTrained",
              "type": "uint256"
            }
          ],
          "internalType": "struct Token.Enjimon",
          "name": "",
          "type": "tuple"
        }
      ],
      "stateMutability": "view",
      "type": "function",
      "constant": true
    }
  ],
  "bytecode": "0x608060405260006007556103846008553480156200001c57600080fd5b50604051620034a8380380620034a8833981810160405281019062000042919062000290565b818181600090805190602001906200005c9291906200016e565b508060019080519060200190620000759291906200016e565b505050620000986200008c620000a060201b60201c565b620000a860201b60201c565b505062000473565b600033905090565b6000600660009054906101000a900473ffffffffffffffffffffffffffffffffffffffff16905081600660006101000a81548173ffffffffffffffffffffffffffffffffffffffff021916908373ffffffffffffffffffffffffffffffffffffffff1602179055508173ffffffffffffffffffffffffffffffffffffffff168173ffffffffffffffffffffffffffffffffffffffff167f8be0079c531659141344cd1fd0a4f28419497f9722a3daafe3b4186f6b6457e060405160405180910390a35050565b8280546200017c9062000398565b90600052602060002090601f016020900481019282620001a05760008555620001ec565b82601f10620001bb57805160ff1916838001178555620001ec565b82800160010185558215620001ec579182015b82811115620001eb578251825591602001919060010190620001ce565b5b509050620001fb9190620001ff565b5090565b5b808211156200021a57600081600090555060010162000200565b5090565b6000620002356200022f846200032c565b62000303565b9050828152602081018484840111156200024e57600080fd5b6200025b84828562000362565b509392505050565b600082601f8301126200027557600080fd5b8151620002878482602086016200021e565b91505092915050565b60008060408385031215620002a457600080fd5b600083015167ffffffffffffffff811115620002bf57600080fd5b620002cd8582860162000263565b925050602083015167ffffffffffffffff811115620002eb57600080fd5b620002f98582860162000263565b9150509250929050565b60006200030f62000322565b90506200031d8282620003ce565b919050565b6000604051905090565b600067ffffffffffffffff8211156200034a576200034962000433565b5b620003558262000462565b9050602081019050919050565b60005b838110156200038257808201518184015260208101905062000365565b8381111562000392576000848401525b50505050565b60006002820490506001821680620003b157607f821691505b60208210811415620003c857620003c762000404565b5b50919050565b620003d98262000462565b810181811067ffffffffffffffff82111715620003fb57620003fa62000433565b5b80604052505050565b7f4e487b7100000000000000000000000000000000000000000000000000000000600052602260045260246000fd5b7f4e487b7100000000000000000000000000000000000000000000000000000000600052604160045260246000fd5b6000601f19601f8301169050919050565b61302580620004836000396000f3fe608060405234801561001057600080fd5b506004361061012c5760003560e01c80638da5cb5b116100ad578063c87b56dd11610071578063c87b56dd1461032d578063e985e9c51461035d578063f2fde38b1461038d578063f59dfdfb146103a9578063f6752d80146103c55761012c565b80638da5cb5b1461028957806395d89b41146102a7578063a22cb465146102c5578063b88d4fde146102e1578063c1e03728146102fd5761012c565b8063368004ed116100f4578063368004ed146101e757806342842e0e146102035780636352211e1461021f57806370a082311461024f578063715018a61461027f5761012c565b806301ffc9a71461013157806306fdde0314610161578063081812fc1461017f578063095ea7b3146101af57806323b872dd146101cb575b600080fd5b61014b60048036038101906101469190611fb7565b6103e1565b60405161015891906124b9565b60405180910390f35b6101696104c3565b60405161017691906124d4565b60405180910390f35b61019960048036038101906101949190612009565b610555565b6040516101a69190612452565b60405180910390f35b6101c960048036038101906101c49190611f7b565b6105da565b005b6101e560048036038101906101e09190611e75565b6106f2565b005b61020160048036038101906101fc9190612009565b610752565b005b61021d60048036038101906102189190611e75565b6107c5565b005b61023960048036038101906102349190612009565b6107e5565b6040516102469190612452565b60405180910390f35b61026960048036038101906102649190611e10565b610897565b6040516102769190612711565b60405180910390f35b61028761094f565b005b6102916109d7565b60405161029e9190612452565b60405180910390f35b6102af610a01565b6040516102bc91906124d4565b60405180910390f35b6102df60048036038101906102da9190611f3f565b610a93565b005b6102fb60048036038101906102f69190611ec4565b610c14565b005b61031760048036038101906103129190612009565b610c76565b60405161032491906126f6565b60405180910390f35b61034760048036038101906103429190612009565b610d18565b60405161035491906124d4565b60405180910390f35b61037760048036038101906103729190611e39565b610dbf565b60405161038491906124b9565b60405180910390f35b6103a760048036038101906103a29190611e10565b610e53565b005b6103c360048036038101906103be9190612009565b610f4b565b005b6103df60048036038101906103da9190612032565b610f90565b005b60007f80ac58cd000000000000000000000000000000000000000000000000000000007bffffffffffffffffffffffffffffffffffffffffffffffffffffffff1916827bffffffffffffffffffffffffffffffffffffffffffffffffffffffff191614806104ac57507f5b5e139f000000000000000000000000000000000000000000000000000000007bffffffffffffffffffffffffffffffffffffffffffffffffffffffff1916827bffffffffffffffffffffffffffffffffffffffffffffffffffffffff1916145b806104bc57506104bb82611105565b5b9050919050565b6060600080546104d29061297a565b80601f01602080910402602001604051908101604052809291908181526020018280546104fe9061297a565b801561054b5780601f106105205761010080835404028352916020019161054b565b820191906000526020600020905b81548152906001019060200180831161052e57829003601f168201915b5050505050905090565b60006105608261116f565b61059f576040517f08c379a000000000000000000000000000000000000000000000000000000000815260040161059690612636565b60405180910390fd5b6004600083815260200190815260200160002060009054906101000a900473ffffffffffffffffffffffffffffffffffffffff169050919050565b60006105e5826107e5565b90508073ffffffffffffffffffffffffffffffffffffffff168373ffffffffffffffffffffffffffffffffffffffff161415610656576040517f08c379a000000000000000000000000000000000000000000000000000000000815260040161064d906126b6565b60405180910390fd5b8073ffffffffffffffffffffffffffffffffffffffff166106756111db565b73ffffffffffffffffffffffffffffffffffffffff1614806106a457506106a38161069e6111db565b610dbf565b5b6106e3576040517f08c379a00000000000000000000000000000000000000000000000000000000081526004016106da906125b6565b60405180910390fd5b6106ed83836111e3565b505050565b6107036106fd6111db565b8261129c565b610742576040517f08c379a0000000000000000000000000000000000000000000000000000000008152600401610739906126d6565b60405180910390fd5b61074d83838361137a565b505050565b60006009600060075481526020019081526020016000209050600854816004015461077d91906127c5565b421161078857600080fd5b60018160020160008282829054906101000a900460ff166107a9919061281b565b92506101000a81548160ff021916908360ff1602179055505050565b6107e083838360405180602001604052806000815250610c14565b505050565b6000806002600084815260200190815260200160002060009054906101000a900473ffffffffffffffffffffffffffffffffffffffff169050600073ffffffffffffffffffffffffffffffffffffffff168173ffffffffffffffffffffffffffffffffffffffff16141561088e576040517f08c379a0000000000000000000000000000000000000000000000000000000008152600401610885906125f6565b60405180910390fd5b80915050919050565b60008073ffffffffffffffffffffffffffffffffffffffff168273ffffffffffffffffffffffffffffffffffffffff161415610908576040517f08c379a00000000000000000000000000000000000000000000000000000000081526004016108ff906125d6565b60405180910390fd5b600360008373ffffffffffffffffffffffffffffffffffffffff1673ffffffffffffffffffffffffffffffffffffffff168152602001908152602001600020549050919050565b6109576111db565b73ffffffffffffffffffffffffffffffffffffffff166109756109d7565b73ffffffffffffffffffffffffffffffffffffffff16146109cb576040517f08c379a00000000000000000000000000000000000000000000000000000000081526004016109c290612656565b60405180910390fd5b6109d560006115d6565b565b6000600660009054906101000a900473ffffffffffffffffffffffffffffffffffffffff16905090565b606060018054610a109061297a565b80601f0160208091040260200160405190810160405280929190818152602001828054610a3c9061297a565b8015610a895780601f10610a5e57610100808354040283529160200191610a89565b820191906000526020600020905b815481529060010190602001808311610a6c57829003601f168201915b5050505050905090565b610a9b6111db565b73ffffffffffffffffffffffffffffffffffffffff168273ffffffffffffffffffffffffffffffffffffffff161415610b09576040517f08c379a0000000000000000000000000000000000000000000000000000000008152600401610b0090612576565b60405180910390fd5b8060056000610b166111db565b73ffffffffffffffffffffffffffffffffffffffff1673ffffffffffffffffffffffffffffffffffffffff16815260200190815260200160002060008473ffffffffffffffffffffffffffffffffffffffff1673ffffffffffffffffffffffffffffffffffffffff16815260200190815260200160002060006101000a81548160ff0219169083151502179055508173ffffffffffffffffffffffffffffffffffffffff16610bc36111db565b73ffffffffffffffffffffffffffffffffffffffff167f17307eab39ab6107e8899845ad3d59bd9653f200f220920489ca2b5937696c3183604051610c0891906124b9565b60405180910390a35050565b610c25610c1f6111db565b8361129c565b610c64576040517f08c379a0000000000000000000000000000000000000000000000000000000008152600401610c5b906126d6565b60405180910390fd5b610c708484848461169c565b50505050565b610c7e611ceb565b600960008381526020019081526020016000206040518060c00160405290816000820160009054906101000a900460ff1660ff1660ff1681526020016000820160019054906101000a900460ff1660ff1660ff168152602001600182015481526020016002820160009054906101000a900460ff1660ff1660ff168152602001600382015481526020016004820154815250509050919050565b6060610d238261116f565b610d62576040517f08c379a0000000000000000000000000000000000000000000000000000000008152600401610d5990612696565b60405180910390fd5b6000610d6c6116f8565b90506000815111610d8c5760405180602001604052806000815250610db7565b80610d968461170f565b604051602001610da792919061242e565b6040516020818303038152906040525b915050919050565b6000600560008473ffffffffffffffffffffffffffffffffffffffff1673ffffffffffffffffffffffffffffffffffffffff16815260200190815260200160002060008373ffffffffffffffffffffffffffffffffffffffff1673ffffffffffffffffffffffffffffffffffffffff16815260200190815260200160002060009054906101000a900460ff16905092915050565b610e5b6111db565b73ffffffffffffffffffffffffffffffffffffffff16610e796109d7565b73ffffffffffffffffffffffffffffffffffffffff1614610ecf576040517f08c379a0000000000000000000000000000000000000000000000000000000008152600401610ec690612656565b60405180910390fd5b600073ffffffffffffffffffffffffffffffffffffffff168173ffffffffffffffffffffffffffffffffffffffff161415610f3f576040517f08c379a0000000000000000000000000000000000000000000000000000000008152600401610f3690612516565b60405180910390fd5b610f48816115d6565b50565b600060096000600754815260200190815260200160002090504281600101548260030154610f7991906127c5565b11610f8357600080fd5b4281600301819055505050565b610f986111db565b73ffffffffffffffffffffffffffffffffffffffff16610fb66109d7565b73ffffffffffffffffffffffffffffffffffffffff161461100c576040517f08c379a000000000000000000000000000000000000000000000000000000000815260040161100390612656565b60405180910390fd5b6040518060c001604052808560ff1681526020018460ff1681526020018381526020018260ff1681526020014281526020014281525060096000600754815260200190815260200160002060008201518160000160006101000a81548160ff021916908360ff16021790555060208201518160000160016101000a81548160ff021916908360ff1602179055506040820151816001015560608201518160020160006101000a81548160ff021916908360ff1602179055506080820151816003015560a082015181600401559050506110e7336007546118bc565b600760008154809291906110fa906129dd565b919050555050505050565b60007f01ffc9a7000000000000000000000000000000000000000000000000000000007bffffffffffffffffffffffffffffffffffffffffffffffffffffffff1916827bffffffffffffffffffffffffffffffffffffffffffffffffffffffff1916149050919050565b60008073ffffffffffffffffffffffffffffffffffffffff166002600084815260200190815260200160002060009054906101000a900473ffffffffffffffffffffffffffffffffffffffff1673ffffffffffffffffffffffffffffffffffffffff1614159050919050565b600033905090565b816004600083815260200190815260200160002060006101000a81548173ffffffffffffffffffffffffffffffffffffffff021916908373ffffffffffffffffffffffffffffffffffffffff160217905550808273ffffffffffffffffffffffffffffffffffffffff16611256836107e5565b73ffffffffffffffffffffffffffffffffffffffff167f8c5be1e5ebec7d5bd14f71427d1e84f3dd0314c0f7b2291e5b200ac8c7c3b92560405160405180910390a45050565b60006112a78261116f565b6112e6576040517f08c379a00000000000000000000000000000000000000000000000000000000081526004016112dd90612596565b60405180910390fd5b60006112f1836107e5565b90508073ffffffffffffffffffffffffffffffffffffffff168473ffffffffffffffffffffffffffffffffffffffff16148061136057508373ffffffffffffffffffffffffffffffffffffffff1661134884610555565b73ffffffffffffffffffffffffffffffffffffffff16145b8061137157506113708185610dbf565b5b91505092915050565b8273ffffffffffffffffffffffffffffffffffffffff1661139a826107e5565b73ffffffffffffffffffffffffffffffffffffffff16146113f0576040517f08c379a00000000000000000000000000000000000000000000000000000000081526004016113e790612676565b60405180910390fd5b600073ffffffffffffffffffffffffffffffffffffffff168273ffffffffffffffffffffffffffffffffffffffff161415611460576040517f08c379a000000000000000000000000000000000000000000000000000000000815260040161145790612556565b60405180910390fd5b61146b8383836118da565b6114766000826111e3565b6001600360008573ffffffffffffffffffffffffffffffffffffffff1673ffffffffffffffffffffffffffffffffffffffff16815260200190815260200160002060008282546114c69190612883565b925050819055506001600360008473ffffffffffffffffffffffffffffffffffffffff1673ffffffffffffffffffffffffffffffffffffffff168152602001908152602001600020600082825461151d91906127c5565b92505081905550816002600083815260200190815260200160002060006101000a81548173ffffffffffffffffffffffffffffffffffffffff021916908373ffffffffffffffffffffffffffffffffffffffff160217905550808273ffffffffffffffffffffffffffffffffffffffff168473ffffffffffffffffffffffffffffffffffffffff167fddf252ad1be2c89b69c2b068fc378daa952ba7f163c4a11628f55a4df523b3ef60405160405180910390a4505050565b6000600660009054906101000a900473ffffffffffffffffffffffffffffffffffffffff16905081600660006101000a81548173ffffffffffffffffffffffffffffffffffffffff021916908373ffffffffffffffffffffffffffffffffffffffff1602179055508173ffffffffffffffffffffffffffffffffffffffff168173ffffffffffffffffffffffffffffffffffffffff167f8be0079c531659141344cd1fd0a4f28419497f9722a3daafe3b4186f6b6457e060405160405180910390a35050565b6116a784848461137a565b6116b384848484611918565b6116f2576040517f08c379a00000000000000000000000000000000000000000000000000000000081526004016116e9906124f6565b60405180910390fd5b50505050565b606060405180602001604052806000815250905090565b60606000821415611757576040518060400160405280600181526020017f300000000000000000000000000000000000000000000000000000000000000081525090506118b7565b600082905060005b60008214611789578080611772906129dd565b915050600a826117829190612852565b915061175f565b60008167ffffffffffffffff8111156117cb577f4e487b7100000000000000000000000000000000000000000000000000000000600052604160045260246000fd5b6040519080825280601f01601f1916602001820160405280156117fd5781602001600182028036833780820191505090505b5090505b600085146118b0576001826118169190612883565b9150600a856118259190612a26565b603061183191906127c5565b60f81b81838151811061186d577f4e487b7100000000000000000000000000000000000000000000000000000000600052603260045260246000fd5b60200101907effffffffffffffffffffffffffffffffffffffffffffffffffffffffffffff1916908160001a905350600a856118a99190612852565b9450611801565b8093505050505b919050565b6118d6828260405180602001604052806000815250611aaf565b5050565b60006009600060075481526020019081526020016000209050428160010154826003015461190891906127c5565b1161191257600080fd5b50505050565b60006119398473ffffffffffffffffffffffffffffffffffffffff16611b0a565b15611aa2578373ffffffffffffffffffffffffffffffffffffffff1663150b7a026119626111db565b8786866040518563ffffffff1660e01b8152600401611984949392919061246d565b602060405180830381600087803b15801561199e57600080fd5b505af19250505080156119cf57506040513d601f19601f820116820180604052508101906119cc9190611fe0565b60015b611a52573d80600081146119ff576040519150601f19603f3d011682016040523d82523d6000602084013e611a04565b606091505b50600081511415611a4a576040517f08c379a0000000000000000000000000000000000000000000000000000000008152600401611a41906124f6565b60405180910390fd5b805181602001fd5b63150b7a0260e01b7bffffffffffffffffffffffffffffffffffffffffffffffffffffffff1916817bffffffffffffffffffffffffffffffffffffffffffffffffffffffff191614915050611aa7565b600190505b949350505050565b611ab98383611b1d565b611ac66000848484611918565b611b05576040517f08c379a0000000000000000000000000000000000000000000000000000000008152600401611afc906124f6565b60405180910390fd5b505050565b600080823b905060008111915050919050565b600073ffffffffffffffffffffffffffffffffffffffff168273ffffffffffffffffffffffffffffffffffffffff161415611b8d576040517f08c379a0000000000000000000000000000000000000000000000000000000008152600401611b8490612616565b60405180910390fd5b611b968161116f565b15611bd6576040517f08c379a0000000000000000000000000000000000000000000000000000000008152600401611bcd90612536565b60405180910390fd5b611be2600083836118da565b6001600360008473ffffffffffffffffffffffffffffffffffffffff1673ffffffffffffffffffffffffffffffffffffffff1681526020019081526020016000206000828254611c3291906127c5565b92505081905550816002600083815260200190815260200160002060006101000a81548173ffffffffffffffffffffffffffffffffffffffff021916908373ffffffffffffffffffffffffffffffffffffffff160217905550808273ffffffffffffffffffffffffffffffffffffffff16600073ffffffffffffffffffffffffffffffffffffffff167fddf252ad1be2c89b69c2b068fc378daa952ba7f163c4a11628f55a4df523b3ef60405160405180910390a45050565b6040518060c00160405280600060ff168152602001600060ff16815260200160008152602001600060ff16815260200160008152602001600081525090565b6000611d3d611d3884612751565b61272c565b905082815260208101848484011115611d5557600080fd5b611d60848285612938565b509392505050565b600081359050611d7781612f7c565b92915050565b600081359050611d8c81612f93565b92915050565b600081359050611da181612faa565b92915050565b600081519050611db681612faa565b92915050565b600082601f830112611dcd57600080fd5b8135611ddd848260208601611d2a565b91505092915050565b600081359050611df581612fc1565b92915050565b600081359050611e0a81612fd8565b92915050565b600060208284031215611e2257600080fd5b6000611e3084828501611d68565b91505092915050565b60008060408385031215611e4c57600080fd5b6000611e5a85828601611d68565b9250506020611e6b85828601611d68565b9150509250929050565b600080600060608486031215611e8a57600080fd5b6000611e9886828701611d68565b9350506020611ea986828701611d68565b9250506040611eba86828701611de6565b9150509250925092565b60008060008060808587031215611eda57600080fd5b6000611ee887828801611d68565b9450506020611ef987828801611d68565b9350506040611f0a87828801611de6565b925050606085013567ffffffffffffffff811115611f2757600080fd5b611f3387828801611dbc565b91505092959194509250565b60008060408385031215611f5257600080fd5b6000611f6085828601611d68565b9250506020611f7185828601611d7d565b9150509250929050565b60008060408385031215611f8e57600080fd5b6000611f9c85828601611d68565b9250506020611fad85828601611de6565b9150509250929050565b600060208284031215611fc957600080fd5b6000611fd784828501611d92565b91505092915050565b600060208284031215611ff257600080fd5b600061200084828501611da7565b91505092915050565b60006020828403121561201b57600080fd5b600061202984828501611de6565b91505092915050565b6000806000806080858703121561204857600080fd5b600061205687828801611dfb565b945050602061206787828801611dfb565b935050604061207887828801611de6565b925050606061208987828801611dfb565b91505092959194509250565b61209e816128b7565b82525050565b6120ad816128c9565b82525050565b60006120be82612782565b6120c88185612798565b93506120d8818560208601612947565b6120e181612b13565b840191505092915050565b60006120f78261278d565b61210181856127a9565b9350612111818560208601612947565b61211a81612b13565b840191505092915050565b60006121308261278d565b61213a81856127ba565b935061214a818560208601612947565b80840191505092915050565b60006121636032836127a9565b915061216e82612b24565b604082019050919050565b60006121866026836127a9565b915061219182612b73565b604082019050919050565b60006121a9601c836127a9565b91506121b482612bc2565b602082019050919050565b60006121cc6024836127a9565b91506121d782612beb565b604082019050919050565b60006121ef6019836127a9565b91506121fa82612c3a565b602082019050919050565b6000612212602c836127a9565b915061221d82612c63565b604082019050919050565b60006122356038836127a9565b915061224082612cb2565b604082019050919050565b6000612258602a836127a9565b915061226382612d01565b604082019050919050565b600061227b6029836127a9565b915061228682612d50565b604082019050919050565b600061229e6020836127a9565b91506122a982612d9f565b602082019050919050565b60006122c1602c836127a9565b91506122cc82612dc8565b604082019050919050565b60006122e46020836127a9565b91506122ef82612e17565b602082019050919050565b60006123076029836127a9565b915061231282612e40565b604082019050919050565b600061232a602f836127a9565b915061233582612e8f565b604082019050919050565b600061234d6021836127a9565b915061235882612ede565b604082019050919050565b60006123706031836127a9565b915061237b82612f2d565b604082019050919050565b60c08201600082015161239c600085018261241f565b5060208201516123af602085018261241f565b5060408201516123c26040850182612401565b5060608201516123d5606085018261241f565b5060808201516123e86080850182612401565b5060a08201516123fb60a0850182612401565b50505050565b61240a81612921565b82525050565b61241981612921565b82525050565b6124288161292b565b82525050565b600061243a8285612125565b91506124468284612125565b91508190509392505050565b60006020820190506124676000830184612095565b92915050565b60006080820190506124826000830187612095565b61248f6020830186612095565b61249c6040830185612410565b81810360608301526124ae81846120b3565b905095945050505050565b60006020820190506124ce60008301846120a4565b92915050565b600060208201905081810360008301526124ee81846120ec565b905092915050565b6000602082019050818103600083015261250f81612156565b9050919050565b6000602082019050818103600083015261252f81612179565b9050919050565b6000602082019050818103600083015261254f8161219c565b9050919050565b6000602082019050818103600083015261256f816121bf565b9050919050565b6000602082019050818103600083015261258f816121e2565b9050919050565b600060208201905081810360008301526125af81612205565b9050919050565b600060208201905081810360008301526125cf81612228565b9050919050565b600060208201905081810360008301526125ef8161224b565b9050919050565b6000602082019050818103600083015261260f8161226e565b9050919050565b6000602082019050818103600083015261262f81612291565b9050919050565b6000602082019050818103600083015261264f816122b4565b9050919050565b6000602082019050818103600083015261266f816122d7565b9050919050565b6000602082019050818103600083015261268f816122fa565b9050919050565b600060208201905081810360008301526126af8161231d565b9050919050565b600060208201905081810360008301526126cf81612340565b9050919050565b600060208201905081810360008301526126ef81612363565b9050919050565b600060c08201905061270b6000830184612386565b92915050565b60006020820190506127266000830184612410565b92915050565b6000612736612747565b905061274282826129ac565b919050565b6000604051905090565b600067ffffffffffffffff82111561276c5761276b612ae4565b5b61277582612b13565b9050602081019050919050565b600081519050919050565b600081519050919050565b600082825260208201905092915050565b600082825260208201905092915050565b600081905092915050565b60006127d082612921565b91506127db83612921565b9250827fffffffffffffffffffffffffffffffffffffffffffffffffffffffffffffffff038211156128105761280f612a57565b5b828201905092915050565b60006128268261292b565b91506128318361292b565b92508260ff0382111561284757612846612a57565b5b828201905092915050565b600061285d82612921565b915061286883612921565b92508261287857612877612a86565b5b828204905092915050565b600061288e82612921565b915061289983612921565b9250828210156128ac576128ab612a57565b5b828203905092915050565b60006128c282612901565b9050919050565b60008115159050919050565b60007fffffffff0000000000000000000000000000000000000000000000000000000082169050919050565b600073ffffffffffffffffffffffffffffffffffffffff82169050919050565b6000819050919050565b600060ff82169050919050565b82818337600083830152505050565b60005b8381101561296557808201518184015260208101905061294a565b83811115612974576000848401525b50505050565b6000600282049050600182168061299257607f821691505b602082108114156129a6576129a5612ab5565b5b50919050565b6129b582612b13565b810181811067ffffffffffffffff821117156129d4576129d3612ae4565b5b80604052505050565b60006129e882612921565b91507fffffffffffffffffffffffffffffffffffffffffffffffffffffffffffffffff821415612a1b57612a1a612a57565b5b600182019050919050565b6000612a3182612921565b9150612a3c83612921565b925082612a4c57612a4b612a86565b5b828206905092915050565b7f4e487b7100000000000000000000000000000000000000000000000000000000600052601160045260246000fd5b7f4e487b7100000000000000000000000000000000000000000000000000000000600052601260045260246000fd5b7f4e487b7100000000000000000000000000000000000000000000000000000000600052602260045260246000fd5b7f4e487b7100000000000000000000000000000000000000000000000000000000600052604160045260246000fd5b6000601f19601f8301169050919050565b7f4552433732313a207472616e7366657220746f206e6f6e20455243373231526560008201527f63656976657220696d706c656d656e7465720000000000000000000000000000602082015250565b7f4f776e61626c653a206e6577206f776e657220697320746865207a65726f206160008201527f6464726573730000000000000000000000000000000000000000000000000000602082015250565b7f4552433732313a20746f6b656e20616c7265616479206d696e74656400000000600082015250565b7f4552433732313a207472616e7366657220746f20746865207a65726f2061646460008201527f7265737300000000000000000000000000000000000000000000000000000000602082015250565b7f4552433732313a20617070726f766520746f2063616c6c657200000000000000600082015250565b7f4552433732313a206f70657261746f7220717565727920666f72206e6f6e657860008201527f697374656e7420746f6b656e0000000000000000000000000000000000000000602082015250565b7f4552433732313a20617070726f76652063616c6c6572206973206e6f74206f7760008201527f6e6572206e6f7220617070726f76656420666f7220616c6c0000000000000000602082015250565b7f4552433732313a2062616c616e636520717565727920666f7220746865207a6560008201527f726f206164647265737300000000000000000000000000000000000000000000602082015250565b7f4552433732313a206f776e657220717565727920666f72206e6f6e657869737460008201527f656e7420746f6b656e0000000000000000000000000000000000000000000000602082015250565b7f4552433732313a206d696e7420746f20746865207a65726f2061646472657373600082015250565b7f4552433732313a20617070726f76656420717565727920666f72206e6f6e657860008201527f697374656e7420746f6b656e0000000000000000000000000000000000000000602082015250565b7f4f776e61626c653a2063616c6c6572206973206e6f7420746865206f776e6572600082015250565b7f4552433732313a207472616e73666572206f6620746f6b656e2074686174206960008201527f73206e6f74206f776e0000000000000000000000000000000000000000000000602082015250565b7f4552433732314d657461646174613a2055524920717565727920666f72206e6f60008201527f6e6578697374656e7420746f6b656e0000000000000000000000000000000000602082015250565b7f4552433732313a20617070726f76616c20746f2063757272656e74206f776e6560008201527f7200000000000000000000000000000000000000000000000000000000000000602082015250565b7f4552433732313a207472616e736665722063616c6c6572206973206e6f74206f60008201527f776e6572206e6f7220617070726f766564000000000000000000000000000000602082015250565b612f85816128b7565b8114612f9057600080fd5b50565b612f9c816128c9565b8114612fa757600080fd5b50565b612fb3816128d5565b8114612fbe57600080fd5b50565b612fca81612921565b8114612fd557600080fd5b50565b612fe18161292b565b8114612fec57600080fd5b5056fea264697066735822122089228878ead08f1ebf6f67aeb6bbc0f3c4f2c669b642500095a8bcaea36d364864736f6c63430008040033",
  "immutableReferences": {},
  "source": "pragma solidity 0.8.4;\r\n\r\nimport \"../node_modules/@openzeppelin/contracts/token/ERC721/ERC721.sol\"; //token framework\r\nimport \"../node_modules/@openzeppelin/contracts/access/Ownable.sol\"; //management of permissions\r\n\r\ncontract Token is ERC721, Ownable {\r\n    struct Enjimon {\r\n        uint8 damage; //0-255\r\n        uint8 magic; \r\n        uint256 endurance;\r\n        uint8 level;\r\n        uint256 lastMeal;\r\n        uint256 lastTrained;\r\n    }\r\n\r\n    uint nextId = 0;\r\n    uint fTeen = 900; //rough interval of 15 mins\r\n\r\n    mapping(uint256 => Enjimon) private _tokenDetails;\r\n\r\n    constructor(string memory name, string memory symbol) ERC721(name, symbol){}\r\n\r\n    function mint(uint8 damage, uint8 magic, uint endurance, uint8 level) public onlyOwner {\r\n\r\n        _tokenDetails[nextId] = Enjimon(damage, magic, endurance, level, block.timestamp, block.timestamp);\r\n        \r\n        _safeMint(msg.sender, nextId);\r\n        \r\n        nextId++;\r\n   \r\n    }\r\n\r\n    function feed(uint256 tokenId) public {\r\n        Enjimon storage enjimon =_tokenDetails[nextId]; \r\n        \r\n        require(enjimon.lastMeal + enjimon.endurance > block.timestamp);\r\n        enjimon.lastMeal = block.timestamp;\r\n    }\r\n\r\n    \r\n   function train(uint256 tokenId) public {\r\n        Enjimon storage enjimon =_tokenDetails[nextId];\r\n\r\n        require(block.timestamp > enjimon.lastTrained + fTeen);\r\n        enjimon.level+=1;\r\n\r\n    }\r\n \r\n function getTokenDetails(uint tokenId) public view returns(Enjimon memory){\r\n        return _tokenDetails[tokenId];\r\n }\r\n\r\n    //requires enjimon to be alive or they can never transfer the token\r\n    function _beforeTokenTransfer(address from, address to, uint256 tokenId) internal override {\r\n        Enjimon storage enjimon =_tokenDetails[nextId];\r\n        \r\n        require(enjimon.lastMeal + enjimon.endurance > block.timestamp); //must be alive\r\n    }\r\n\r\n\r\n}\r\n",
  "sourcePath": "E:/Web3 Games/NFT-GAMES/contracts/token.sol",
  "compiler": {
    "name": "solc",
    "version": "0.8.4+commit.c7e474f2.Emscripten.clang"
  },
  "schemaVersion": "3.3.4",
  "updatedAt": "2021-08-04T13:51:22.392Z",
  "networkType": "ethereum",
  "devdoc": {
    "kind": "dev",
    "methods": {
      "approve(address,uint256)": {
        "details": "See {IERC721-approve}."
      },
      "balanceOf(address)": {
        "details": "See {IERC721-balanceOf}."
      },
      "getApproved(uint256)": {
        "details": "See {IERC721-getApproved}."
      },
      "isApprovedForAll(address,address)": {
        "details": "See {IERC721-isApprovedForAll}."
      },
      "name()": {
        "details": "See {IERC721Metadata-name}."
      },
      "owner()": {
        "details": "Returns the address of the current owner."
      },
      "ownerOf(uint256)": {
        "details": "See {IERC721-ownerOf}."
      },
      "renounceOwnership()": {
        "details": "Leaves the contract without owner. It will not be possible to call `onlyOwner` functions anymore. Can only be called by the current owner. NOTE: Renouncing ownership will leave the contract without an owner, thereby removing any functionality that is only available to the owner."
      },
      "safeTransferFrom(address,address,uint256)": {
        "details": "See {IERC721-safeTransferFrom}."
      },
      "safeTransferFrom(address,address,uint256,bytes)": {
        "details": "See {IERC721-safeTransferFrom}."
      },
      "setApprovalForAll(address,bool)": {
        "details": "See {IERC721-setApprovalForAll}."
      },
      "supportsInterface(bytes4)": {
        "details": "See {IERC165-supportsInterface}."
      },
      "symbol()": {
        "details": "See {IERC721Metadata-symbol}."
      },
      "tokenURI(uint256)": {
        "details": "See {IERC721Metadata-tokenURI}."
      },
      "transferFrom(address,address,uint256)": {
        "details": "See {IERC721-transferFrom}."
      },
      "transferOwnership(address)": {
        "details": "Transfers ownership of the contract to a new account (`newOwner`). Can only be called by the current owner."
      }
    },
    "version": 1
  },
  "userdoc": {
    "kind": "user",
    "methods": {},
    "version": 1
  }
}